{
  "contractName": "DiscountingContract",
  "abi": [
    {
      "inputs": [
        {
          "internalType": "uint256",
          "name": "",
          "type": "uint256"
        }
      ],
      "name": "Suppliers",
      "outputs": [
        {
          "internalType": "address",
          "name": "supplierAddress",
          "type": "address"
        },
        {
          "internalType": "uint256",
          "name": "needAmount",
          "type": "uint256"
        },
        {
          "internalType": "uint256",
          "name": "discountPercent",
          "type": "uint256"
        }
      ],
      "stateMutability": "view",
      "type": "function"
    },
    {
      "inputs": [],
      "name": "SuppliersLength",
      "outputs": [
        {
          "internalType": "uint256",
          "name": "",
          "type": "uint256"
        }
      ],
      "stateMutability": "view",
      "type": "function"
    },
    {
      "inputs": [],
      "name": "inited",
      "outputs": [
        {
          "internalType": "bool",
          "name": "",
          "type": "bool"
        }
      ],
      "stateMutability": "view",
      "type": "function"
    },
    {
      "inputs": [
        {
          "components": [
            {
              "internalType": "address",
              "name": "supplierAddress",
              "type": "address"
            },
            {
              "internalType": "uint256",
              "name": "needAmount",
              "type": "uint256"
            },
            {
              "internalType": "uint256",
              "name": "discountPercent",
              "type": "uint256"
            }
          ],
          "internalType": "struct DiscountingTypes.Supplier[]",
          "name": "_rule",
          "type": "tuple[]"
        }
      ],
      "name": "initContract",
      "outputs": [],
      "stateMutability": "nonpayable",
      "type": "function"
    },
    {
      "inputs": [],
      "name": "getSuppliers",
      "outputs": [
        {
          "components": [
            {
              "internalType": "address",
              "name": "supplierAddress",
              "type": "address"
            },
            {
              "internalType": "uint256",
              "name": "needAmount",
              "type": "uint256"
            },
            {
              "internalType": "uint256",
              "name": "discountPercent",
              "type": "uint256"
            }
          ],
          "internalType": "struct DiscountingTypes.Supplier[]",
          "name": "",
          "type": "tuple[]"
        }
      ],
      "stateMutability": "view",
      "type": "function"
    }
  ],
  "bytecode": "0x608060405260006001556002805460ff1916905534801561001f57600080fd5b506104a98061002f6000396000f3fe608060405234801561001057600080fd5b50600436106100575760003560e01c80631e4a2a031461005c57806324b2dff1146100715780632b3eb1371461009c57806343516832146100b157806343c885ba146100c6575b600080fd5b61006f61006a3660046102ed565b6100db565b005b61008461007f36600461039d565b61016f565b604051610093939291906103b5565b60405180910390f35b6100a461019a565b6040516100939190610443565b6100b96101a0565b60405161009391906103d6565b6100ce610268565b6040516100939190610438565b60025460ff16156100eb57600080fd5b60005b815181101561015e5781818151811061010357fe5b602090810291909101810151600180546000908152808452604090819020835181546001600160a01b0319166001600160a01b03909116178155938301518483015590910151600290920191909155805481018155016100ee565b50506002805460ff19166001179055565b6000602081905290815260409020805460018201546002909201546001600160a01b03909116919083565b60015481565b60608060015467ffffffffffffffff811180156101bc57600080fd5b506040519080825280602002602001820160405280156101f657816020015b6101e3610271565b8152602001906001900390816101db5790505b50905060005b81518110156102625760008181526020818152604091829020825160608101845281546001600160a01b031681526001820154928101929092526002015491810191909152825183908390811061024f57fe5b60209081029190910101526001016101fc565b50905090565b60025460ff1681565b604051806060016040528060006001600160a01b0316815260200160008152602001600081525090565b6000606082840312156102ac578081fd5b6102b6606061044c565b905081356001600160a01b03811681146102cf57600080fd5b80825250602082013560208201526040820135604082015292915050565b600060208083850312156102ff578182fd5b823567ffffffffffffffff80821115610316578384fd5b818501915085601f830112610329578384fd5b813581811115610337578485fd5b610344848583020161044c565b81815284810192508385016060808402860187018a1015610363578788fd5b8795505b8386101561038f576103798a8361029b565b8552600195909501949386019390810190610367565b509098975050505050505050565b6000602082840312156103ae578081fd5b5035919050565b6001600160a01b039390931683526020830191909152604082015260600190565b602080825282518282018190526000919060409081850190868401855b8281101561042b57815180516001600160a01b03168552868101518786015285015185850152606090930192908501906001016103f3565b5091979650505050505050565b901515815260200190565b90815260200190565b60405181810167ffffffffffffffff8111828210171561046b57600080fd5b60405291905056fea26469706673582212206054f05c8997c23ecb98e15a02b641b4dcffcded9abd8b026f6edd59e04058ac64736f6c634300060c0033",
  "immutableReferences": {},
  "source": "pragma solidity ^0.6.12;\npragma experimental ABIEncoderV2;\n\nimport \"./IDiscountingContract.sol\";\n\ncontract DiscountingContract is IDiscountingContract {\n\n    mapping(uint256 => Supplier) public Suppliers;\n    uint256 public SuppliersLength = 0;\n    bool public inited = false;\n\n    function initContract(Supplier[] memory _rule) public {\n        require(inited == false);\n        for (uint256 i = 0; i < _rule.length; i++) {\n            Suppliers[SuppliersLength] = _rule[i];\n            SuppliersLength++;\n        }\n        inited = true;\n    }\n\n    function getSuppliers() external view override returns(Supplier[] memory) {\n        Supplier[] memory result = new Supplier[](SuppliersLength);\n        for (uint256 i = 0; i < result.length; i++) {\n            result[i] = Suppliers[i];\n        }\n        return result;\n    }\n\n}\n\n",
  "sourcePath": "/home/oem/Dropbox/WORK/freelance/dynamic-discounting-contracts/contracts/discounting/DiscountingContract.sol",
  "compiler": {
    "name": "solc",
    "version": "0.6.12+commit.27d51765.Emscripten.clang"
  },
  "schemaVersion": "3.2.5",
  "updatedAt": "2020-12-13T06:22:52.316Z",
  "devdoc": {
    "kind": "dev",
    "methods": {},
    "version": 1
  },
  "userdoc": {
    "kind": "user",
    "methods": {},
    "version": 1
  }
}