{
  "contractName": "DiscountingFactory",
  "abi": [
    {
      "anonymous": false,
      "inputs": [
        {
          "indexed": true,
          "internalType": "uint256",
          "name": "_id",
          "type": "uint256"
        },
        {
          "indexed": true,
          "internalType": "address",
          "name": "_buyer",
          "type": "address"
        },
        {
          "indexed": false,
          "internalType": "uint256",
          "name": "_hasAmount",
          "type": "uint256"
        },
        {
          "indexed": false,
          "internalType": "uint256",
          "name": "_minPercent",
          "type": "uint256"
        },
        {
          "indexed": false,
          "internalType": "uint256",
          "name": "_timestamp",
          "type": "uint256"
        }
      ],
      "name": "CreatedAuction",
      "type": "event"
    },
    {
      "anonymous": false,
      "inputs": [
        {
          "indexed": true,
          "internalType": "address",
          "name": "previousOwner",
          "type": "address"
        },
        {
          "indexed": true,
          "internalType": "address",
          "name": "newOwner",
          "type": "address"
        }
      ],
      "name": "OwnershipTransferred",
      "type": "event"
    },
    {
      "anonymous": false,
      "inputs": [
        {
          "indexed": true,
          "internalType": "uint256",
          "name": "_id",
          "type": "uint256"
        },
        {
          "indexed": true,
          "internalType": "address",
          "name": "_responder",
          "type": "address"
        },
        {
          "indexed": false,
          "internalType": "uint256",
          "name": "_discountPercent",
          "type": "uint256"
        },
        {
          "indexed": false,
          "internalType": "uint256",
          "name": "_needAmount",
          "type": "uint256"
        },
        {
          "indexed": false,
          "internalType": "uint256",
          "name": "_timestamp",
          "type": "uint256"
        }
      ],
      "name": "RespondAuction",
      "type": "event"
    },
    {
      "inputs": [
        {
          "internalType": "uint256",
          "name": "",
          "type": "uint256"
        }
      ],
      "name": "auctions",
      "outputs": [
        {
          "internalType": "uint256",
          "name": "id",
          "type": "uint256"
        },
        {
          "internalType": "address",
          "name": "buyer",
          "type": "address"
        },
        {
          "internalType": "uint256",
          "name": "minPercent",
          "type": "uint256"
        },
        {
          "internalType": "uint256",
          "name": "hasAmount",
          "type": "uint256"
        },
        {
          "internalType": "address",
          "name": "signedContract",
          "type": "address"
        }
      ],
      "stateMutability": "view",
      "type": "function"
    },
    {
      "inputs": [
        {
          "internalType": "uint256",
          "name": "",
          "type": "uint256"
        },
        {
          "internalType": "uint256",
          "name": "",
          "type": "uint256"
        }
      ],
      "name": "auctionsSuppliers",
      "outputs": [
        {
          "internalType": "address",
          "name": "supplierAddress",
          "type": "address"
        },
        {
          "internalType": "uint256",
          "name": "discountPercent",
          "type": "uint256"
        },
        {
          "internalType": "uint256",
          "name": "needAmount",
          "type": "uint256"
        }
      ],
      "stateMutability": "view",
      "type": "function"
    },
    {
      "inputs": [
        {
          "internalType": "uint256",
          "name": "",
          "type": "uint256"
        }
      ],
      "name": "contracts",
      "outputs": [
        {
          "internalType": "contract DiscountingContract",
          "name": "",
          "type": "address"
        }
      ],
      "stateMutability": "view",
      "type": "function"
    },
    {
      "inputs": [],
      "name": "owner",
      "outputs": [
        {
          "internalType": "address",
          "name": "",
          "type": "address"
        }
      ],
      "stateMutability": "view",
      "type": "function"
    },
    {
      "inputs": [],
      "name": "renounceOwnership",
      "outputs": [],
      "stateMutability": "nonpayable",
      "type": "function"
    },
    {
      "inputs": [
        {
          "internalType": "address",
          "name": "newOwner",
          "type": "address"
        }
      ],
      "name": "transferOwnership",
      "outputs": [],
      "stateMutability": "nonpayable",
      "type": "function"
    },
    {
      "inputs": [
        {
          "internalType": "uint256",
          "name": "_hasAmount",
          "type": "uint256"
        },
        {
          "internalType": "uint256",
          "name": "_minPercent",
          "type": "uint256"
        }
      ],
      "name": "createAuction",
      "outputs": [
        {
          "internalType": "uint256",
          "name": "",
          "type": "uint256"
        }
      ],
      "stateMutability": "nonpayable",
      "type": "function"
    },
    {
      "inputs": [
        {
          "internalType": "uint256",
          "name": "_id",
          "type": "uint256"
        },
        {
          "internalType": "uint256",
          "name": "_discountPercent",
          "type": "uint256"
        },
        {
          "internalType": "uint256",
          "name": "_needAmount",
          "type": "uint256"
        }
      ],
      "name": "respondAuction",
      "outputs": [
        {
          "internalType": "bool",
          "name": "",
          "type": "bool"
        }
      ],
      "stateMutability": "nonpayable",
      "type": "function"
    },
    {
      "inputs": [
        {
          "internalType": "uint256",
          "name": "_id",
          "type": "uint256"
        }
      ],
      "name": "executeAuction",
      "outputs": [
        {
          "internalType": "address",
          "name": "",
          "type": "address"
        }
      ],
      "stateMutability": "nonpayable",
      "type": "function"
    },
    {
      "inputs": [
        {
          "internalType": "uint256",
          "name": "_id",
          "type": "uint256"
        }
      ],
      "name": "getAuctionDetails",
      "outputs": [
        {
          "components": [
            {
              "internalType": "uint256",
              "name": "id",
              "type": "uint256"
            },
            {
              "internalType": "address",
              "name": "buyer",
              "type": "address"
            },
            {
              "internalType": "uint256",
              "name": "minPercent",
              "type": "uint256"
            },
            {
              "internalType": "uint256",
              "name": "hasAmount",
              "type": "uint256"
            },
            {
              "internalType": "address",
              "name": "signedContract",
              "type": "address"
            }
          ],
          "internalType": "struct DiscountingTypes.Auction",
          "name": "",
          "type": "tuple"
        }
      ],
      "stateMutability": "view",
      "type": "function"
    },
    {
      "inputs": [
        {
          "internalType": "address",
          "name": "_contractAddress",
          "type": "address"
        }
      ],
      "name": "getContractDetails",
      "outputs": [
        {
          "components": [
            {
              "internalType": "uint256",
              "name": "amount",
              "type": "uint256"
            },
            {
              "internalType": "uint256",
              "name": "discount",
              "type": "uint256"
            }
          ],
          "internalType": "struct DiscountingTypes.ContractRule",
          "name": "",
          "type": "tuple"
        }
      ],
      "stateMutability": "view",
      "type": "function"
    },
    {
      "inputs": [
        {
          "internalType": "uint256",
          "name": "_id",
          "type": "uint256"
        }
      ],
      "name": "getAuctionSuppliers",
      "outputs": [
        {
          "components": [
            {
              "internalType": "address",
              "name": "supplierAddress",
              "type": "address"
            },
            {
              "internalType": "uint256",
              "name": "discountPercent",
              "type": "uint256"
            },
            {
              "internalType": "uint256",
              "name": "needAmount",
              "type": "uint256"
            }
          ],
          "internalType": "struct DiscountingTypes.Supplier[]",
          "name": "",
          "type": "tuple[]"
        }
      ],
      "stateMutability": "view",
      "type": "function"
    },
    {
      "inputs": [],
      "name": "getOtherOpenAuctions",
      "outputs": [
        {
          "internalType": "uint256[]",
          "name": "",
          "type": "uint256[]"
        }
      ],
      "stateMutability": "view",
      "type": "function"
    },
    {
      "inputs": [],
      "name": "getMyOpenAuctions",
      "outputs": [
        {
          "internalType": "uint256[]",
          "name": "",
          "type": "uint256[]"
        }
      ],
      "stateMutability": "view",
      "type": "function"
    },
    {
      "inputs": [],
      "name": "getClosedAuctions",
      "outputs": [
        {
          "internalType": "uint256[]",
          "name": "",
          "type": "uint256[]"
        }
      ],
      "stateMutability": "view",
      "type": "function"
    }
  ],
  "bytecode": "0x608060405234801561001057600080fd5b50600061001b61006a565b600080546001600160a01b0319166001600160a01b0383169081178255604051929350917f8be0079c531659141344cd1fd0a4f28419497f9722a3daafe3b4186f6b6457e0908290a35061006e565b3390565b6112f68061007d6000396000f3fe608060405234801561001057600080fd5b50600436106100f55760003560e01c8063822e06fd11610097578063b8f763fb11610066578063b8f763fb146101f3578063ce36292e14610213578063f20e5e3514610233578063f2fde38b14610253576100f5565b8063822e06fd146101b95780638268c63e146101c15780638da5cb5b146101e3578063b4a93c8e146101eb576100f5565b8063474da79a116100d3578063474da79a14610158578063571a26a014610178578063715018a61461019c5780637fd855ee146101a6576100f5565b80630121683f146100fa5780632ee95e381461012357806332df3f0214610138575b600080fd5b61010d610108366004610eac565b610266565b60405161011a9190611275565b60405180910390f35b61012b610406565b60405161011a9190610f8f565b61014b610146366004610e66565b6105b9565b60405161011a919061125e565b61016b610166366004610e94565b6105da565b60405161011a9190610ef8565b61018b610186366004610e94565b610601565b60405161011a95949392919061127e565b6101a461064c565b005b61016b6101b4366004610e94565b6106cb565b61012b610718565b6101d46101cf366004610eac565b610848565b60405161011a93929190610f0c565b61016b610891565b61012b6108a0565b610206610201366004610ecd565b610a4e565b60405161011a9190610fd3565b610226610221366004610e94565b610c45565b60405161011a9190610f2d565b610246610241366004610e94565b610cb1565b60405161011a919061121a565b6101a4610261366004610e66565b610d27565b60008261028e5760405162461bcd60e51b815260040161028590611136565b60405180910390fd5b600254610299610de1565b506040805160a08101825282815233602082018181528284018781526060840189815260006080860181815260028054600181018255925286517f405787fa12a823e0f2b7631cc41b3ba8828b3321ca811111fa75cd3aa3bb5ace60059093029283015593517f405787fa12a823e0f2b7631cc41b3ba8828b3321ca811111fa75cd3aa3bb5acf820180546001600160a01b03199081166001600160a01b039384161790915593517f405787fa12a823e0f2b7631cc41b3ba8828b3321ca811111fa75cd3aa3bb5ad083015591517f405787fa12a823e0f2b7631cc41b3ba8828b3321ca811111fa75cd3aa3bb5ad182015592517f405787fa12a823e0f2b7631cc41b3ba8828b3321ca811111fa75cd3aa3bb5ad290930180549092169216919091179055915190919083907fe91b8ef1f7a1b902733c87cd4974a72d5adb750e4cf01345a737855e0871c21e906103f6908990899042906112aa565b60405180910390a3509392505050565b60606000805b60025481101561049d57336001600160a01b03166002828154811061042d57fe5b60009182526020909120600160059092020101546001600160a01b0316148015610489575060006001600160a01b03166002828154811061046a57fe5b60009182526020909120600460059092020101546001600160a01b0316145b15610495576001909101905b60010161040c565b5060608167ffffffffffffffff811180156104b757600080fd5b506040519080825280602002602001820160405280156104e1578160200160208202803683370190505b5090506000915060005b6002548110156105b257336001600160a01b03166002828154811061050c57fe5b60009182526020909120600160059092020101546001600160a01b0316148015610568575060006001600160a01b03166002828154811061054957fe5b60009182526020909120600460059092020101546001600160a01b0316145b156105aa576002818154811061057a57fe5b90600052602060002090600502016000015482848151811061059857fe5b60209081029190910101526001909201915b6001016104eb565b5091505090565b6105c1610e22565b505060408051808201909152607b808252602082015290565b600181815481106105e757fe5b6000918252602090912001546001600160a01b0316905081565b6002818154811061060e57fe5b6000918252602090912060059091020180546001820154600283015460038401546004909401549294506001600160a01b0391821693909290911685565b610654610ddd565b6000546001600160a01b039081169116146106815760405162461bcd60e51b8152600401610285906110ad565b600080546040516001600160a01b03909116907f8be0079c531659141344cd1fd0a4f28419497f9722a3daafe3b4186f6b6457e0908390a3600080546001600160a01b0319169055565b600030600283815481106106db57fe5b906000526020600020906005020160040160006101000a8154816001600160a01b0302191690836001600160a01b03160217905550309050919050565b60606000805b6002548110156107715760006001600160a01b03166002828154811061074057fe5b60009182526020909120600460059092020101546001600160a01b031614610769576001909101905b60010161071e565b5060608167ffffffffffffffff8111801561078b57600080fd5b506040519080825280602002602001820160405280156107b5578160200160208202803683370190505b5090506000915060005b6002548110156105b25760006001600160a01b0316600282815481106107e157fe5b60009182526020909120600460059092020101546001600160a01b031614610840576002818154811061081057fe5b90600052602060002090600502016000015482848151811061082e57fe5b60209081029190910101526001909201915b6001016107bf565b6003602052816000526040600020818154811061086157fe5b60009182526020909120600390910201805460018201546002909201546001600160a01b03909116935090915083565b6000546001600160a01b031690565b60606000805b60025481101561093857336001600160a01b0316600282815481106108c757fe5b60009182526020909120600160059092020101546001600160a01b031614801590610924575060006001600160a01b03166002828154811061090557fe5b60009182526020909120600460059092020101546001600160a01b0316145b15610930576001909101905b6001016108a6565b5060608167ffffffffffffffff8111801561095257600080fd5b5060405190808252806020026020018201604052801561097c578160200160208202803683370190505b5090506000915060005b6002548110156105b257336001600160a01b0316600282815481106109a757fe5b60009182526020909120600160059092020101546001600160a01b031614801590610a04575060006001600160a01b0316600282815481106109e557fe5b60009182526020909120600460059092020101546001600160a01b0316145b15610a465760028181548110610a1657fe5b906000526020600020906005020160000154828481518110610a3457fe5b60209081029190910101526001909201915b600101610986565b6000336001600160a01b031660028581548110610a6757fe5b60009182526020909120600160059092020101546001600160a01b03161415610aa25760405162461bcd60e51b815260040161028590611069565b6002548410610ac35760405162461bcd60e51b815260040161028590611184565b8260028581548110610ad157fe5b9060005260206000209060050201600201541115610b015760405162461bcd60e51b8152600401610285906110e2565b8160028581548110610b0f57fe5b9060005260206000209060050201600301541115610b3f5760405162461bcd60e51b8152600401610285906111cb565b60006001600160a01b031660028581548110610b5757fe5b60009182526020909120600460059092020101546001600160a01b031614610b915760405162461bcd60e51b815260040161028590610fde565b60008481526003602081815260408084208151606081018352338082528185018a81528285018a8152845460018082018755958a529690982092519590960290910180546001600160a01b0319166001600160a01b039095169490941784559351908301559251600290910155905185907fbe3edb6249603b78d8087d29461631b968f7434b00a013f9de5323f5507b792490610c33908790879042906112aa565b60405180910390a35060019392505050565b600081815260036020526040902054606090819067ffffffffffffffff81118015610c6f57600080fd5b50604051908082528060200260200182016040528015610ca957816020015b610c96610e3c565b815260200190600190039081610c8e5790505b509392505050565b610cb9610de1565b60028281548110610cc657fe5b60009182526020918290206040805160a08101825260059093029091018054835260018101546001600160a01b0390811694840194909452600281015491830191909152600381015460608301526004015490911660808201529050919050565b610d2f610ddd565b6000546001600160a01b03908116911614610d5c5760405162461bcd60e51b8152600401610285906110ad565b6001600160a01b038116610d825760405162461bcd60e51b815260040161028590611023565b600080546040516001600160a01b03808516939216917f8be0079c531659141344cd1fd0a4f28419497f9722a3daafe3b4186f6b6457e091a3600080546001600160a01b0319166001600160a01b0392909216919091179055565b3390565b6040518060a001604052806000815260200160006001600160a01b03168152602001600081526020016000815260200160006001600160a01b031681525090565b604051806040016040528060008152602001600081525090565b604051806060016040528060006001600160a01b0316815260200160008152602001600081525090565b600060208284031215610e77578081fd5b81356001600160a01b0381168114610e8d578182fd5b9392505050565b600060208284031215610ea5578081fd5b5035919050565b60008060408385031215610ebe578081fd5b50508035926020909101359150565b600080600060608486031215610ee1578081fd5b505081359360208301359350604090920135919050565b6001600160a01b0391909116815260200190565b6001600160a01b039390931683526020830191909152604082015260600190565b602080825282518282018190526000919060409081850190868401855b82811015610f8257815180516001600160a01b0316855286810151878601528501518585015260609093019290850190600101610f4a565b5091979650505050505050565b6020808252825182820181905260009190848201906040850190845b81811015610fc757835183529284019291840191600101610fab565b50909695505050505050565b901515815260200190565b60208082526025908201527f446973636f756e74696e67466163746f72793a2061756374696f6e20697320636040820152641b1bdcd95960da1b606082015260800190565b60208082526026908201527f4f776e61626c653a206e6577206f776e657220697320746865207a65726f206160408201526564647265737360d01b606082015260800190565b60208082526024908201527f446973636f756e74696e67466163746f72793a2077726f6e67206d73672e7365604082015263373232b960e11b606082015260800190565b6020808252818101527f4f776e61626c653a2063616c6c6572206973206e6f7420746865206f776e6572604082015260600190565b60208082526034908201527f446973636f756e74696e67466163746f72793a2077726f6e67205f646973636f6040820152733ab73a2832b931b2b73a103830b930b6b2ba32b960611b606082015260800190565b6020808252602e908201527f446973636f756e74696e67466163746f72793a2077726f6e67205f686173416d60408201526d37bab73a103830b930b6b2ba32b960911b606082015260800190565b60208082526027908201527f446973636f756e74696e67466163746f72793a2077726f6e67205f69642070616040820152663930b6b2ba32b960c91b606082015260800190565b6020808252602f908201527f446973636f756e74696e67466163746f72793a2077726f6e67205f6e6565644160408201526e36b7bab73a103830b930b6b2ba32b960891b606082015260800190565b815181526020808301516001600160a01b03908116918301919091526040808401519083015260608084015190830152608092830151169181019190915260a00190565b815181526020918201519181019190915260400190565b90815260200190565b9485526001600160a01b0393841660208601526040850192909252606084015216608082015260a00190565b928352602083019190915260408201526060019056fea26469706673582212202af9be2de7e459cca2294cfecb95a19649c8ba502e15c6f8ecb3fcefc78f52d464736f6c634300060c0033",
  "immutableReferences": {},
  "source": "// SPDX-License-Identifier: MIT\n\n/**\n *                        oooo                             oooo                            oooo        \n *                        `888                             `888                            `888        \n *   .ooooo.  oooo  oooo   888   .ooooo.  oooo d8b          888 .oo.    .oooo.    .ooooo.   888  oooo  \n *  d88' `88b `888  `888   888  d88' `88b `888\"\"8P          888P\"Y88b  `P  )88b  d88' `\"Y8  888 .8P'   \n *  888ooo888  888   888   888  888ooo888  888     8888888  888   888   .oP\"888  888        888888.    \n *  888        888   888   888  888        888              888   888  d8(  888  888   .o8  888 `88b.  \n *  `Y8bod8P'  `V88V\"V8P' o888o `Y8bod8P' d888b            o888o o888o `Y888\"\"8o `Y8bod8P' o888o o888o                                                                                                \n *\n **/\n\npragma solidity ^0.6.12;\npragma experimental ABIEncoderV2;\n\nimport \"@openzeppelin/contracts/access/Ownable.sol\";\nimport \"@openzeppelin/contracts/math/SafeMath.sol\";\nimport \"./DiscountingContract.sol\";\nimport \"./IDiscountingFactory.sol\";\n\n\ncontract DiscountingFactory is IDiscountingFactory, Ownable {\n\n    using SafeMath for uint256;\n\n    //\n    // Storage\n    //\n\n    DiscountingContract[] public contracts;\n    Auction[] public auctions;\n    mapping(uint256 => Supplier[]) public auctionsSuppliers;\n\n    //\n    // Events\n    //\n\n    event CreatedAuction(uint256 indexed _id, address indexed _buyer, uint256 _hasAmount, uint256 _minPercent, uint256 _timestamp);\n    event RespondAuction(uint256 indexed _id, address indexed _responder, uint256 _discountPercent , uint256 _needAmount, uint256 _timestamp);\n\n    //\n    // External methods\n    //\n\n    function createAuction(uint256 _hasAmount, uint256 _minPercent) external override returns(uint256) {\n        require(_hasAmount != 0, \"DiscountingFactory: wrong _hasAmount parameter\");\n\n        uint256 newId = auctions.length;\n        Auction memory newAuction = Auction({\n            id: newId,\n            buyer: msg.sender,\n            minPercent: _minPercent,\n            hasAmount: _hasAmount,\n            signedContract: address(0)\n        });\n\n        auctions.push(newAuction);\n\n        emit CreatedAuction(newId, msg.sender, _hasAmount, _minPercent, block.timestamp);\n\n        return newId;\n    }\n\n    function respondAuction(uint256 _id, uint256 _discountPercent , uint256 _needAmount) external override returns(bool) {\n        require(auctions[_id].buyer != msg.sender, \"DiscountingFactory: wrong msg.sender\");\n        require(auctions.length > _id, \"DiscountingFactory: wrong _id parameter\");\n        require(auctions[_id].minPercent <= _discountPercent, \"DiscountingFactory: wrong _discountPercent parameter\");\n        require(auctions[_id].hasAmount <= _needAmount, \"DiscountingFactory: wrong _needAmount parameter\");\n        require(auctions[_id].signedContract == address(0), \"DiscountingFactory: auction is closed\");\n\n        auctionsSuppliers[_id].push(Supplier({\n            supplierAddress: msg.sender,\n            discountPercent: _discountPercent,\n            needAmount: _needAmount\n        }));\n\n        emit RespondAuction(_id, msg.sender, _discountPercent, _needAmount, block.timestamp);\n\n        return true;\n    }\n\n    function executeAuction(uint256 _id) external override returns(address) {\n        auctions[_id].signedContract = address(this);\n        return address(this);\n    }\n\n    function getAuctionDetails(uint256 _id) external view override returns(Auction memory) {\n        return auctions[_id];\n    }\n\n    function getContractDetails(address _contractAddress) external view override returns(ContractRule memory) {\n        return ContractRule(123, 123);\n    }\n\n    //\n    // no gas control methods\n    //\n\n    function getAuctionSuppliers(uint256 _id) external view override returns(Supplier[] memory) {\n        Supplier[] memory result = new Supplier[](auctionsSuppliers[_id].length);\n        return result;\n    }\n\n    function getOtherOpenAuctions() external view override returns(uint256[] memory) {\n        uint256 counter = 0;\n        for (uint256 i = 0; i < auctions.length; i++) {\n            if (auctions[i].buyer != msg.sender && auctions[i].signedContract == address(0)) {\n                counter++;\n            }\n        }\n        \n        uint256[] memory result = new uint256[](counter);\n        counter = 0;\n        for (uint256 i = 0; i < auctions.length; i++) {\n            if (auctions[i].buyer != msg.sender && auctions[i].signedContract == address(0)) {\n                result[counter] = auctions[i].id;\n                counter++;\n            }\n        }\n        return result;\n    }\n\n    function getMyOpenAuctions() external view override returns(uint256[] memory) {\n        uint256 counter = 0;\n        for (uint256 i = 0; i < auctions.length; i++) {\n            if (auctions[i].buyer == msg.sender && auctions[i].signedContract == address(0)) {\n                counter++;\n            }\n        }\n        \n        uint256[] memory result = new uint256[](counter);\n        counter = 0;\n        for (uint256 i = 0; i < auctions.length; i++) {\n            if (auctions[i].buyer == msg.sender && auctions[i].signedContract == address(0)) {\n                result[counter] = auctions[i].id;\n                counter++;\n            }\n        }\n        return result;\n    }\n\n    function getClosedAuctions() external view override returns(uint256[] memory) {\n        uint256 counter = 0;\n        for (uint256 i = 0; i < auctions.length; i++) {\n            if (auctions[i].signedContract != address(0)) {\n                counter++;\n            }\n        }\n        \n        uint256[] memory result = new uint256[](counter);\n        counter = 0;\n        for (uint256 i = 0; i < auctions.length; i++) {\n            if (auctions[i].signedContract != address(0)) {\n                result[counter] = auctions[i].id;\n                counter++;\n            }\n        }\n        return result;\n    }\n\n}\n",
  "sourcePath": "/home/oem/Dropbox/WORK/freelance/dynamic-discounting-contracts/contracts/DiscountingFactory.sol",
  "compiler": {
    "name": "solc",
    "version": "0.6.12+commit.27d51765.Emscripten.clang"
  },
  "schemaVersion": "3.2.5",
  "updatedAt": "2020-12-12T19:32:22.740Z",
  "devdoc": {
    "kind": "dev",
    "methods": {
      "owner()": {
        "details": "Returns the address of the current owner."
      },
      "renounceOwnership()": {
        "details": "Leaves the contract without owner. It will not be possible to call `onlyOwner` functions anymore. Can only be called by the current owner. NOTE: Renouncing ownership will leave the contract without an owner, thereby removing any functionality that is only available to the owner."
      },
      "transferOwnership(address)": {
        "details": "Transfers ownership of the contract to a new account (`newOwner`). Can only be called by the current owner."
      }
    },
    "version": 1
  },
  "userdoc": {
    "kind": "user",
    "methods": {},
    "version": 1
  }
}