{
  "contractName": "DiscountingFactory",
  "abi": [
    {
      "anonymous": false,
      "inputs": [
        {
          "indexed": false,
          "internalType": "uint256",
          "name": "_id",
          "type": "uint256"
        },
        {
          "indexed": true,
          "internalType": "address",
          "name": "_buyer",
          "type": "address"
        },
        {
          "indexed": false,
          "internalType": "uint256",
          "name": "_hasAmount",
          "type": "uint256"
        },
        {
          "indexed": false,
          "internalType": "uint256",
          "name": "_minPercent",
          "type": "uint256"
        },
        {
          "indexed": false,
          "internalType": "uint256",
          "name": "_timestamp",
          "type": "uint256"
        }
      ],
      "name": "CreatedAuctionOrder",
      "type": "event"
    },
    {
      "anonymous": false,
      "inputs": [
        {
          "indexed": true,
          "internalType": "address",
          "name": "previousOwner",
          "type": "address"
        },
        {
          "indexed": true,
          "internalType": "address",
          "name": "newOwner",
          "type": "address"
        }
      ],
      "name": "OwnershipTransferred",
      "type": "event"
    },
    {
      "anonymous": false,
      "inputs": [
        {
          "indexed": false,
          "internalType": "uint256",
          "name": "_id",
          "type": "uint256"
        },
        {
          "indexed": true,
          "internalType": "address",
          "name": "_responder",
          "type": "address"
        },
        {
          "indexed": false,
          "internalType": "uint256",
          "name": "_timestamp",
          "type": "uint256"
        }
      ],
      "name": "RespondAuctionOrder",
      "type": "event"
    },
    {
      "inputs": [
        {
          "internalType": "uint256",
          "name": "",
          "type": "uint256"
        }
      ],
      "name": "auctionOrders",
      "outputs": [
        {
          "internalType": "uint256",
          "name": "id",
          "type": "uint256"
        },
        {
          "internalType": "address",
          "name": "buyer",
          "type": "address"
        },
        {
          "internalType": "uint256",
          "name": "hasAmount",
          "type": "uint256"
        },
        {
          "internalType": "uint256",
          "name": "minPercent",
          "type": "uint256"
        },
        {
          "internalType": "address",
          "name": "signedContract",
          "type": "address"
        }
      ],
      "stateMutability": "view",
      "type": "function"
    },
    {
      "inputs": [
        {
          "internalType": "uint256",
          "name": "",
          "type": "uint256"
        }
      ],
      "name": "contracts",
      "outputs": [
        {
          "internalType": "contract DiscountingContract",
          "name": "",
          "type": "address"
        }
      ],
      "stateMutability": "view",
      "type": "function"
    },
    {
      "inputs": [],
      "name": "owner",
      "outputs": [
        {
          "internalType": "address",
          "name": "",
          "type": "address"
        }
      ],
      "stateMutability": "view",
      "type": "function"
    },
    {
      "inputs": [],
      "name": "renounceOwnership",
      "outputs": [],
      "stateMutability": "nonpayable",
      "type": "function"
    },
    {
      "inputs": [
        {
          "internalType": "address",
          "name": "newOwner",
          "type": "address"
        }
      ],
      "name": "transferOwnership",
      "outputs": [],
      "stateMutability": "nonpayable",
      "type": "function"
    },
    {
      "inputs": [
        {
          "internalType": "uint256",
          "name": "_hasAmount",
          "type": "uint256"
        },
        {
          "internalType": "uint256",
          "name": "_minPercent",
          "type": "uint256"
        }
      ],
      "name": "createAuctionOrder",
      "outputs": [
        {
          "internalType": "uint256",
          "name": "",
          "type": "uint256"
        }
      ],
      "stateMutability": "nonpayable",
      "type": "function"
    },
    {
      "inputs": [
        {
          "internalType": "uint256",
          "name": "_orderId",
          "type": "uint256"
        }
      ],
      "name": "respondAuctionOrder",
      "outputs": [
        {
          "internalType": "bool",
          "name": "",
          "type": "bool"
        }
      ],
      "stateMutability": "nonpayable",
      "type": "function"
    },
    {
      "inputs": [
        {
          "internalType": "uint256",
          "name": "_orderId",
          "type": "uint256"
        }
      ],
      "name": "executeAuctionOrder",
      "outputs": [
        {
          "internalType": "address",
          "name": "",
          "type": "address"
        }
      ],
      "stateMutability": "nonpayable",
      "type": "function"
    },
    {
      "inputs": [
        {
          "internalType": "uint256",
          "name": "_orderId",
          "type": "uint256"
        }
      ],
      "name": "getOrderDetails",
      "outputs": [
        {
          "components": [
            {
              "internalType": "uint256",
              "name": "id",
              "type": "uint256"
            },
            {
              "internalType": "address",
              "name": "buyer",
              "type": "address"
            },
            {
              "internalType": "uint256",
              "name": "hasAmount",
              "type": "uint256"
            },
            {
              "internalType": "uint256",
              "name": "minPercent",
              "type": "uint256"
            },
            {
              "components": [
                {
                  "internalType": "address",
                  "name": "supplierAddress",
                  "type": "address"
                },
                {
                  "internalType": "address",
                  "name": "needAmount",
                  "type": "address"
                }
              ],
              "internalType": "struct DiscountingTypes.Supplier[]",
              "name": "suppliers",
              "type": "tuple[]"
            },
            {
              "internalType": "address",
              "name": "signedContract",
              "type": "address"
            }
          ],
          "internalType": "struct DiscountingTypes.AuctionOrder",
          "name": "",
          "type": "tuple"
        }
      ],
      "stateMutability": "view",
      "type": "function"
    },
    {
      "inputs": [
        {
          "internalType": "address",
          "name": "_contractAddress",
          "type": "address"
        }
      ],
      "name": "getContractDetails",
      "outputs": [
        {
          "components": [
            {
              "internalType": "uint256",
              "name": "amount",
              "type": "uint256"
            },
            {
              "internalType": "uint256",
              "name": "discount",
              "type": "uint256"
            }
          ],
          "internalType": "struct DiscountingTypes.ContractRule",
          "name": "",
          "type": "tuple"
        }
      ],
      "stateMutability": "view",
      "type": "function"
    },
    {
      "inputs": [
        {
          "internalType": "uint256[]",
          "name": "_orderIds",
          "type": "uint256[]"
        }
      ],
      "name": "getOrderDetailsList",
      "outputs": [
        {
          "components": [
            {
              "internalType": "uint256",
              "name": "id",
              "type": "uint256"
            },
            {
              "internalType": "address",
              "name": "buyer",
              "type": "address"
            },
            {
              "internalType": "uint256",
              "name": "hasAmount",
              "type": "uint256"
            },
            {
              "internalType": "uint256",
              "name": "minPercent",
              "type": "uint256"
            },
            {
              "components": [
                {
                  "internalType": "address",
                  "name": "supplierAddress",
                  "type": "address"
                },
                {
                  "internalType": "address",
                  "name": "needAmount",
                  "type": "address"
                }
              ],
              "internalType": "struct DiscountingTypes.Supplier[]",
              "name": "suppliers",
              "type": "tuple[]"
            },
            {
              "internalType": "address",
              "name": "signedContract",
              "type": "address"
            }
          ],
          "internalType": "struct DiscountingTypes.AuctionOrder[]",
          "name": "",
          "type": "tuple[]"
        }
      ],
      "stateMutability": "view",
      "type": "function"
    },
    {
      "inputs": [
        {
          "internalType": "address[]",
          "name": "_contractAddresses",
          "type": "address[]"
        }
      ],
      "name": "getContractDetailsList",
      "outputs": [
        {
          "components": [
            {
              "internalType": "uint256",
              "name": "amount",
              "type": "uint256"
            },
            {
              "internalType": "uint256",
              "name": "discount",
              "type": "uint256"
            }
          ],
          "internalType": "struct DiscountingTypes.ContractRule[]",
          "name": "",
          "type": "tuple[]"
        }
      ],
      "stateMutability": "view",
      "type": "function"
    },
    {
      "inputs": [],
      "name": "getOpenedOrders",
      "outputs": [
        {
          "components": [
            {
              "internalType": "uint256",
              "name": "id",
              "type": "uint256"
            },
            {
              "internalType": "address",
              "name": "buyer",
              "type": "address"
            },
            {
              "internalType": "uint256",
              "name": "hasAmount",
              "type": "uint256"
            },
            {
              "internalType": "uint256",
              "name": "minPercent",
              "type": "uint256"
            },
            {
              "components": [
                {
                  "internalType": "address",
                  "name": "supplierAddress",
                  "type": "address"
                },
                {
                  "internalType": "address",
                  "name": "needAmount",
                  "type": "address"
                }
              ],
              "internalType": "struct DiscountingTypes.Supplier[]",
              "name": "suppliers",
              "type": "tuple[]"
            },
            {
              "internalType": "address",
              "name": "signedContract",
              "type": "address"
            }
          ],
          "internalType": "struct DiscountingTypes.AuctionOrder[]",
          "name": "",
          "type": "tuple[]"
        }
      ],
      "stateMutability": "view",
      "type": "function"
    }
  ],
  "bytecode": "0x608060405234801561001057600080fd5b50600061001b61006a565b600080546001600160a01b0319166001600160a01b0383169081178255604051929350917f8be0079c531659141344cd1fd0a4f28419497f9722a3daafe3b4186f6b6457e0908290a35061006e565b3390565b610c968061007d6000396000f3fe608060405234801561001057600080fd5b50600436106100cf5760003560e01c80638da5cb5b1161008c578063d846471a11610066578063d846471a146101c6578063dead5993146101e6578063ec7dd7bb146101ee578063f2fde38b1461020e576100cf565b80638da5cb5b1461017e578063a64ac5a614610186578063d806b88d146101a6576100cf565b80632c6ed2fa146100d457806332df3f02146100fd578063474da79a1461011d578063574e32831461013d578063715018a6146101615780637187f0491461016b575b600080fd5b6100e76100e236600461092c565b610221565b6040516100f49190610bd6565b60405180910390f35b61011061010b3660046107d1565b610253565b6040516100f49190610bc8565b61013061012b366004610914565b610274565b6040516100f49190610a20565b61015061014b366004610914565b61029b565b6040516100f4959493929190610bdf565b6101696102e6565b005b610130610179366004610914565b610365565b61013061036b565b610199610194366004610914565b61037a565b6040516100f49190610ae1565b6101b96101b43660046107f3565b6103c7565b6040516100f49190610a94565b6101d96101d4366004610890565b610401565b6040516100f49190610a34565b6101d9610578565b6102016101fc366004610914565b6105b1565b6040516100f49190610bb5565b61016961021c3660046107d1565b61069e565b6000826102495760405162461bcd60e51b815260040161024090610b67565b60405180910390fd5b5060015b92915050565b61025b610758565b505060408051808201909152607b808252602082015290565b6001818154811061028157fe5b6000918252602090912001546001600160a01b0316905081565b600281815481106102a857fe5b6000918252602090912060069091020180546001820154600283015460038401546005909401549294506001600160a01b0391821693909290911685565b6102ee610754565b6000546001600160a01b0390811691161461031b5760405162461bcd60e51b815260040161024090610b32565b600080546040516001600160a01b03909116907f8be0079c531659141344cd1fd0a4f28419497f9722a3daafe3b4186f6b6457e0908390a3600080546001600160a01b0319169055565b50600090565b6000546001600160a01b031690565b6000336001600160a01b03167fc3fdfed8fab8f19d85100476c0410da76c98748d7eb1e61fae89d71990d3461183426040516103b7929190610c0b565b60405180910390a2506001919050565b604080516000808252602082019092526060916103fa565b6103e7610758565b8152602001906001900390816103df5790505b5092915050565b606080825167ffffffffffffffff8111801561041c57600080fd5b5060405190808252806020026020018201604052801561045657816020015b610443610772565b81526020019060019003908161043b5790505b50905060005b83518110156103fa57600284828151811061047357fe5b60200260200101518154811061048557fe5b600091825260208083206040805160c08101825260069094029091018054845260018101546001600160a01b031684840152600281015484830152600381015460608501526004810180548351818602810186019094528084529495919460808701949192909184015b8282101561053a576000848152602090819020604080518082019091526002850290910180546001600160a01b039081168352600191820154168284015290835290920191016104ef565b50505090825250600591909101546001600160a01b0316602090910152825183908390811061056557fe5b602090810291909101015260010161045c565b604080516000808252602082019092526060916105ab565b610598610772565b8152602001906001900390816105905790505b50905090565b6105b9610772565b600282815481106105c657fe5b600091825260208083206040805160c08101825260069094029091018054845260018101546001600160a01b031684840152600281015484830152600381015460608501526004810180548351818602810186019094528084529495919460808701949192909184015b8282101561067b576000848152602090819020604080518082019091526002850290910180546001600160a01b03908116835260019182015416828401529083529092019101610630565b50505090825250600591909101546001600160a01b031660209091015292915050565b6106a6610754565b6000546001600160a01b039081169116146106d35760405162461bcd60e51b815260040161024090610b32565b6001600160a01b0381166106f95760405162461bcd60e51b815260040161024090610aec565b600080546040516001600160a01b03808516939216917f8be0079c531659141344cd1fd0a4f28419497f9722a3daafe3b4186f6b6457e091a3600080546001600160a01b0319166001600160a01b0392909216919091179055565b3390565b604051806040016040528060008152602001600081525090565b6040518060c001604052806000815260200160006001600160a01b0316815260200160008152602001600081526020016060815260200160006001600160a01b031681525090565b80356001600160a01b038116811461024d57600080fd5b6000602082840312156107e2578081fd5b6107ec83836107ba565b9392505050565b60006020808385031215610805578182fd5b823567ffffffffffffffff81111561081b578283fd5b8301601f8101851361082b578283fd5b803561083e61083982610c40565b610c19565b818152838101908385018584028501860189101561085a578687fd5b8694505b838510156108845761087089826107ba565b83526001949094019391850191850161085e565b50979650505050505050565b600060208083850312156108a2578182fd5b823567ffffffffffffffff8111156108b8578283fd5b8301601f810185136108c8578283fd5b80356108d661083982610c40565b81815283810190838501858402850186018910156108f2578687fd5b8694505b838510156108845780358352600194909401939185019185016108f6565b600060208284031215610925578081fd5b5035919050565b6000806040838503121561093e578081fd5b50508035926020909101359150565b80516001600160a01b039081168352602091820151169082015260400190565b6001600160a01b03169052565b600060c0830182518452602060018060a01b038185015116818601526040840151604086015260608401516060860152608084015160c060808701528281516109c38186610bd6565b9284019450859291505b808310156109f2576109e082865161094d565b915083850194506001830192506109cd565b5060a08601519350610a0760a088018561096d565b9695505050505050565b80518252602090810151910152565b6001600160a01b0391909116815260200190565b6000602080830181845280855180835260408601915060408482028701019250838701855b82811015610a8757603f19888603018452610a7585835161097a565b94509285019290850190600101610a59565b5092979650505050505050565b602080825282518282018190526000919060409081850190868401855b82811015610ad457610ac4848351610a11565b9284019290850190600101610ab1565b5091979650505050505050565b901515815260200190565b60208082526026908201527f4f776e61626c653a206e6577206f776e657220697320746865207a65726f206160408201526564647265737360d01b606082015260800190565b6020808252818101527f4f776e61626c653a2063616c6c6572206973206e6f7420746865206f776e6572604082015260600190565b6020808252602e908201527f446973636f756e74696e67466163746f72793a2077726f6e67205f686173416d60408201526d37bab73a103830b930b6b2ba32b960911b606082015260800190565b6000602082526107ec602083018461097a565b6040810161024d8284610a11565b90815260200190565b9485526001600160a01b0393841660208601526040850192909252606084015216608082015260a00190565b918252602082015260400190565b60405181810167ffffffffffffffff81118282101715610c3857600080fd5b604052919050565b600067ffffffffffffffff821115610c56578081fd5b506020908102019056fea2646970667358221220bb3c89700bc4c92ccd0fab44d36e6e6d2be55cb6c431a19537ce4a7dba1d13b664736f6c634300060c0033",
  "immutableReferences": {},
  "source": "// SPDX-License-Identifier: MIT\n\n/**\n *                        oooo                             oooo                            oooo        \n *                        `888                             `888                            `888        \n *   .ooooo.  oooo  oooo   888   .ooooo.  oooo d8b          888 .oo.    .oooo.    .ooooo.   888  oooo  \n *  d88' `88b `888  `888   888  d88' `88b `888\"\"8P          888P\"Y88b  `P  )88b  d88' `\"Y8  888 .8P'   \n *  888ooo888  888   888   888  888ooo888  888     8888888  888   888   .oP\"888  888        888888.    \n *  888        888   888   888  888        888              888   888  d8(  888  888   .o8  888 `88b.  \n *  `Y8bod8P'  `V88V\"V8P' o888o `Y8bod8P' d888b            o888o o888o `Y888\"\"8o `Y8bod8P' o888o o888o                                                                                                \n *\n **/\n\npragma solidity ^0.6.12;\npragma experimental ABIEncoderV2;\n\nimport \"@openzeppelin/contracts/access/Ownable.sol\";\nimport \"@openzeppelin/contracts/math/SafeMath.sol\";\nimport \"./DiscountingContract.sol\";\nimport \"./IDiscountingFactory.sol\";\n\n\ncontract DiscountingFactory is IDiscountingFactory, Ownable {\n\n    using SafeMath for uint256;\n\n    //\n    // Storage\n    //\n\n    DiscountingContract[] public contracts;\n    AuctionOrder[] public auctionOrders;\n\n    //\n    // Events\n    //\n\n    event CreatedAuctionOrder(uint256 _id, address indexed _buyer, uint256 _hasAmount, uint256 _minPercent, uint256 _timestamp);\n    event RespondAuctionOrder(uint256 _id, address indexed _responder, uint256 _timestamp);\n\n    //\n    // External methods\n    //\n\n    function createAuctionOrder(uint256 _hasAmount, uint256 _minPercent) external override returns(uint256) {\n        require(_hasAmount != 0, \"DiscountingFactory: wrong _hasAmount parameter\");\n\n        // uint256 newOrderId = auctionOrders.length;\n        // AuctionOrder memory newAuctionOrder = AuctionOrder({\n        //     id: newOrderId,\n        //     buyer: msg.sender,\n        //     hasAmount: _hasAmount,\n        //     minPercent: _minPercent,\n        //     suppliers: new Supplier[](0),\n        //     signedContract: address(0)\n        // });\n\n        // auctionOrders.push(newAuctionOrder);\n\n        // emit CreatedAuctionOrder(newOrderId, msg.sender, _hasAmount, _minPercent, block.timestamp);\n\n        return 1;\n    }\n\n    function respondAuctionOrder(uint256 _orderId) external override returns(bool) {\n\n        emit RespondAuctionOrder(_orderId, msg.sender, block.timestamp);\n\n        return true;\n    }\n\n    function executeAuctionOrder(uint256 _orderId) external override returns(address) {\n        return address(0);\n    }\n\n    function getOrderDetails(uint256 _orderId) external view override returns(AuctionOrder memory) {\n        return(auctionOrders[_orderId]);\n    }\n\n    function getContractDetails(address _contractAddress) external view override returns(ContractRule memory) {\n        return(ContractRule(123, 123));\n    }\n\n    //\n    // no gas control methods\n    //\n\n    function getOrderDetailsList(uint256[] memory _orderIds) external view override returns(AuctionOrder[] memory) {\n        AuctionOrder[] memory result = new AuctionOrder[](_orderIds.length);\n        for (uint256 i = 0; i < _orderIds.length; i++) {\n            result[i] = auctionOrders[_orderIds[i]];\n        }\n        return result;\n    }\n\n    function getContractDetailsList(address[] memory _contractAddresses) external view override returns(ContractRule[] memory) {\n        return new ContractRule[](0);\n    }\n\n    function getOpenedOrders() external view override returns(AuctionOrder[] memory) {\n        return new AuctionOrder[](0);\n    }\n\n}\n",
  "sourcePath": "/home/oem/Dropbox/WORK/freelance/dynamic-discounting-contracts/contracts/DiscountingFactory.sol",
  "compiler": {
    "name": "solc",
    "version": "0.6.12+commit.27d51765.Emscripten.clang"
  },
  "schemaVersion": "3.2.5",
  "updatedAt": "2020-12-12T16:36:52.444Z",
  "devdoc": {
    "kind": "dev",
    "methods": {
      "owner()": {
        "details": "Returns the address of the current owner."
      },
      "renounceOwnership()": {
        "details": "Leaves the contract without owner. It will not be possible to call `onlyOwner` functions anymore. Can only be called by the current owner. NOTE: Renouncing ownership will leave the contract without an owner, thereby removing any functionality that is only available to the owner."
      },
      "transferOwnership(address)": {
        "details": "Transfers ownership of the contract to a new account (`newOwner`). Can only be called by the current owner."
      }
    },
    "version": 1
  },
  "userdoc": {
    "kind": "user",
    "methods": {},
    "version": 1
  }
}