{
  "contractName": "DiscountingContract",
  "abi": [
    {
      "inputs": [
        {
          "internalType": "uint256",
          "name": "",
          "type": "uint256"
        }
      ],
      "name": "contractRules",
      "outputs": [
        {
          "internalType": "address",
          "name": "partner",
          "type": "address"
        },
        {
          "internalType": "uint256",
          "name": "amount",
          "type": "uint256"
        },
        {
          "internalType": "uint256",
          "name": "discount",
          "type": "uint256"
        }
      ],
      "stateMutability": "view",
      "type": "function"
    },
    {
      "inputs": [],
      "name": "contractRulesLength",
      "outputs": [
        {
          "internalType": "uint256",
          "name": "",
          "type": "uint256"
        }
      ],
      "stateMutability": "view",
      "type": "function"
    },
    {
      "inputs": [
        {
          "components": [
            {
              "internalType": "address",
              "name": "partner",
              "type": "address"
            },
            {
              "internalType": "uint256",
              "name": "amount",
              "type": "uint256"
            },
            {
              "internalType": "uint256",
              "name": "discount",
              "type": "uint256"
            }
          ],
          "internalType": "struct DiscountingTypes.ContractRule[]",
          "name": "_rule",
          "type": "tuple[]"
        }
      ],
      "name": "initContract",
      "outputs": [],
      "stateMutability": "nonpayable",
      "type": "function"
    },
    {
      "inputs": [],
      "name": "getContractRules",
      "outputs": [
        {
          "components": [
            {
              "internalType": "address",
              "name": "partner",
              "type": "address"
            },
            {
              "internalType": "uint256",
              "name": "amount",
              "type": "uint256"
            },
            {
              "internalType": "uint256",
              "name": "discount",
              "type": "uint256"
            }
          ],
          "internalType": "struct DiscountingTypes.ContractRule[]",
          "name": "",
          "type": "tuple[]"
        }
      ],
      "stateMutability": "view",
      "type": "function"
    }
  ],
  "bytecode": "0x6080604052600060015534801561001557600080fd5b5061045a806100256000396000f3fe608060405234801561001057600080fd5b506004361061004c5760003560e01c80630477aade146100515780631e4a2a031461007c5780632f45516c1461009157806351dad731146100a6575b600080fd5b61006461005f366004610359565b6100bb565b60405161007393929190610371565b60405180910390f35b61008f61008a3660046102a9565b6100e6565b005b61009961015f565b6040516100739190610392565b6100ae610227565b60405161007391906103f4565b6000602081905290815260409020805460018201546002909201546001600160a01b03909116919083565b60005b8151811015610153578181815181106100fe57fe5b602090810291909101810151600180546000908152808452604090819020835181546001600160a01b0319166001600160a01b03909116178155938301518483015590910151600290920191909155016100e9565b50506001805481019055565b60608060015467ffffffffffffffff8111801561017b57600080fd5b506040519080825280602002602001820160405280156101b557816020015b6101a261022d565b81526020019060019003908161019a5790505b50905060005b81518110156102215760008181526020818152604091829020825160608101845281546001600160a01b031681526001820154928101929092526002015491810191909152825183908390811061020e57fe5b60209081029190910101526001016101bb565b50905090565b60015481565b604051806060016040528060006001600160a01b0316815260200160008152602001600081525090565b600060608284031215610268578081fd5b61027260606103fd565b905081356001600160a01b038116811461028b57600080fd5b80825250602082013560208201526040820135604082015292915050565b600060208083850312156102bb578182fd5b823567ffffffffffffffff808211156102d2578384fd5b818501915085601f8301126102e5578384fd5b8135818111156102f3578485fd5b61030084858302016103fd565b81815284810192508385016060808402860187018a101561031f578788fd5b8795505b8386101561034b576103358a83610257565b8552600195909501949386019390810190610323565b509098975050505050505050565b60006020828403121561036a578081fd5b5035919050565b6001600160a01b039390931683526020830191909152604082015260600190565b602080825282518282018190526000919060409081850190868401855b828110156103e757815180516001600160a01b03168552868101518786015285015185850152606090930192908501906001016103af565b5091979650505050505050565b90815260200190565b60405181810167ffffffffffffffff8111828210171561041c57600080fd5b60405291905056fea26469706673582212208883f456540b3f89a97689f710338c361bac26ad103ef65da078918d110d292664736f6c634300060c0033",
  "immutableReferences": {},
  "source": "pragma solidity ^0.6.12;\npragma experimental ABIEncoderV2;\n\nimport \"./DiscountingTypes.sol\";\n\ncontract DiscountingContract is DiscountingTypes {\n\n    mapping(uint256 => ContractRule) public contractRules;\n    uint256 public contractRulesLength = 0;\n\n    function initContract(ContractRule[] memory _rule) public {\n        for (uint256 i = 0; i < _rule.length; i++) {\n            contractRules[contractRulesLength] = _rule[i];\n        }\n        contractRulesLength++;\n    }\n\n    function getContractRules() external view returns(ContractRule[] memory) {\n        ContractRule[] memory result = new ContractRule[](contractRulesLength);\n        for (uint256 i = 0; i < result.length; i++) {\n            result[i] = contractRules[i];\n        }\n        return result;\n    }\n\n}\n\n",
  "sourcePath": "/home/oem/Dropbox/WORK/freelance/dynamic-discounting-contracts/contracts/DiscountingContract.sol",
  "compiler": {
    "name": "solc",
    "version": "0.6.12+commit.27d51765.Emscripten.clang"
  },
  "schemaVersion": "3.2.5",
  "updatedAt": "2020-12-13T04:19:29.165Z",
  "devdoc": {
    "kind": "dev",
    "methods": {},
    "version": 1
  },
  "userdoc": {
    "kind": "user",
    "methods": {},
    "version": 1
  }
}