{
  "contractName": "DiscountingContract",
  "abi": [
    {
      "inputs": [],
      "name": "getContractRule",
      "outputs": [
        {
          "components": [
            {
              "internalType": "uint256",
              "name": "amount",
              "type": "uint256"
            },
            {
              "internalType": "uint256",
              "name": "discount",
              "type": "uint256"
            }
          ],
          "internalType": "struct DiscountingTypes.ContractRule",
          "name": "",
          "type": "tuple"
        }
      ],
      "stateMutability": "view",
      "type": "function"
    }
  ],
  "bytecode": "0x608060405234801561001057600080fd5b5060cc8061001f6000396000f3fe6080604052348015600f57600080fd5b506004361060285760003560e01c8063b54f14a414602d575b600080fd5b60336047565b604051603e9190607f565b60405180910390f35b604d6065565b5060408051808201909152607b808252602082015290565b604051806040016040528060008152602001600081525090565b81518152602091820151918101919091526040019056fea2646970667358221220aadab1574ac85f7e69d799565118c0847f40978eb26601c83556f928c0b0ae7e64736f6c634300060c0033",
  "immutableReferences": {},
  "source": "pragma solidity ^0.6.12;\npragma experimental ABIEncoderV2;\n\nimport \"./DiscountingTypes.sol\";\n\ncontract DiscountingContract is DiscountingTypes {\n\n    function getContractRule() external view returns(ContractRule memory) {\n        return ContractRule(123,123);\n    }\n\n}\n\n",
  "sourcePath": "/home/oem/Dropbox/WORK/freelance/dynamic-discounting-contracts/contracts/DiscountingContract.sol",
  "compiler": {
    "name": "solc",
    "version": "0.6.12+commit.27d51765.Emscripten.clang"
  },
  "schemaVersion": "3.2.5",
  "updatedAt": "2020-12-12T19:32:22.738Z",
  "devdoc": {
    "kind": "dev",
    "methods": {},
    "version": 1
  },
  "userdoc": {
    "kind": "user",
    "methods": {},
    "version": 1
  }
}