{
  "contractName": "DiscountingFactory",
  "abi": [
    {
      "anonymous": false,
      "inputs": [
        {
          "indexed": true,
          "internalType": "uint256",
          "name": "_id",
          "type": "uint256"
        },
        {
          "indexed": true,
          "internalType": "address",
          "name": "_buyer",
          "type": "address"
        },
        {
          "indexed": false,
          "internalType": "uint256",
          "name": "_hasAmount",
          "type": "uint256"
        },
        {
          "indexed": false,
          "internalType": "uint256",
          "name": "_minPercent",
          "type": "uint256"
        },
        {
          "indexed": false,
          "internalType": "uint256",
          "name": "_timestamp",
          "type": "uint256"
        }
      ],
      "name": "CreatedAuction",
      "type": "event"
    },
    {
      "anonymous": false,
      "inputs": [
        {
          "indexed": true,
          "internalType": "uint256",
          "name": "_id",
          "type": "uint256"
        },
        {
          "indexed": true,
          "internalType": "address",
          "name": "_buyer",
          "type": "address"
        },
        {
          "indexed": true,
          "internalType": "address",
          "name": "_newContractAddress",
          "type": "address"
        }
      ],
      "name": "ExecutedAuction",
      "type": "event"
    },
    {
      "anonymous": false,
      "inputs": [
        {
          "indexed": true,
          "internalType": "address",
          "name": "previousOwner",
          "type": "address"
        },
        {
          "indexed": true,
          "internalType": "address",
          "name": "newOwner",
          "type": "address"
        }
      ],
      "name": "OwnershipTransferred",
      "type": "event"
    },
    {
      "anonymous": false,
      "inputs": [
        {
          "indexed": true,
          "internalType": "uint256",
          "name": "_id",
          "type": "uint256"
        },
        {
          "indexed": true,
          "internalType": "address",
          "name": "_responder",
          "type": "address"
        },
        {
          "indexed": false,
          "internalType": "uint256",
          "name": "_discountPercent",
          "type": "uint256"
        },
        {
          "indexed": false,
          "internalType": "uint256",
          "name": "_needAmount",
          "type": "uint256"
        },
        {
          "indexed": false,
          "internalType": "uint256",
          "name": "_timestamp",
          "type": "uint256"
        }
      ],
      "name": "RespondAuction",
      "type": "event"
    },
    {
      "inputs": [],
      "name": "owner",
      "outputs": [
        {
          "internalType": "address",
          "name": "",
          "type": "address"
        }
      ],
      "stateMutability": "view",
      "type": "function"
    },
    {
      "inputs": [],
      "name": "renounceOwnership",
      "outputs": [],
      "stateMutability": "nonpayable",
      "type": "function"
    },
    {
      "inputs": [
        {
          "internalType": "address",
          "name": "newOwner",
          "type": "address"
        }
      ],
      "name": "transferOwnership",
      "outputs": [],
      "stateMutability": "nonpayable",
      "type": "function"
    },
    {
      "inputs": [
        {
          "internalType": "uint256",
          "name": "_hasAmount",
          "type": "uint256"
        },
        {
          "internalType": "uint256",
          "name": "_minPercent",
          "type": "uint256"
        }
      ],
      "name": "createAuction",
      "outputs": [
        {
          "internalType": "uint256",
          "name": "",
          "type": "uint256"
        }
      ],
      "stateMutability": "nonpayable",
      "type": "function"
    },
    {
      "inputs": [
        {
          "internalType": "uint256",
          "name": "_id",
          "type": "uint256"
        },
        {
          "internalType": "uint256",
          "name": "_needAmount",
          "type": "uint256"
        },
        {
          "internalType": "uint256",
          "name": "_discountPercent",
          "type": "uint256"
        }
      ],
      "name": "respondAuction",
      "outputs": [
        {
          "internalType": "bool",
          "name": "",
          "type": "bool"
        }
      ],
      "stateMutability": "nonpayable",
      "type": "function"
    },
    {
      "inputs": [
        {
          "internalType": "uint256",
          "name": "_id",
          "type": "uint256"
        }
      ],
      "name": "executeAuction",
      "outputs": [
        {
          "internalType": "address",
          "name": "",
          "type": "address"
        }
      ],
      "stateMutability": "nonpayable",
      "type": "function"
    },
    {
      "inputs": [
        {
          "internalType": "uint256",
          "name": "_id",
          "type": "uint256"
        }
      ],
      "name": "getAuctionDetails",
      "outputs": [
        {
          "components": [
            {
              "internalType": "uint256",
              "name": "id",
              "type": "uint256"
            },
            {
              "internalType": "address",
              "name": "buyer",
              "type": "address"
            },
            {
              "internalType": "uint256",
              "name": "minPercent",
              "type": "uint256"
            },
            {
              "internalType": "uint256",
              "name": "hasAmount",
              "type": "uint256"
            },
            {
              "internalType": "address",
              "name": "signedContract",
              "type": "address"
            }
          ],
          "internalType": "struct DiscountingTypes.Auction",
          "name": "",
          "type": "tuple"
        }
      ],
      "stateMutability": "view",
      "type": "function"
    },
    {
      "inputs": [
        {
          "internalType": "address",
          "name": "_contractAddress",
          "type": "address"
        }
      ],
      "name": "getContractDetails",
      "outputs": [
        {
          "components": [
            {
              "internalType": "address",
              "name": "partner",
              "type": "address"
            },
            {
              "internalType": "uint256",
              "name": "amount",
              "type": "uint256"
            },
            {
              "internalType": "uint256",
              "name": "discount",
              "type": "uint256"
            }
          ],
          "internalType": "struct DiscountingTypes.ContractRule[]",
          "name": "",
          "type": "tuple[]"
        }
      ],
      "stateMutability": "view",
      "type": "function"
    },
    {
      "inputs": [
        {
          "internalType": "uint256",
          "name": "_id",
          "type": "uint256"
        }
      ],
      "name": "getAuctionSuppliers",
      "outputs": [
        {
          "components": [
            {
              "internalType": "address",
              "name": "supplierAddress",
              "type": "address"
            },
            {
              "internalType": "uint256",
              "name": "discountPercent",
              "type": "uint256"
            },
            {
              "internalType": "uint256",
              "name": "needAmount",
              "type": "uint256"
            }
          ],
          "internalType": "struct DiscountingTypes.Supplier[]",
          "name": "",
          "type": "tuple[]"
        }
      ],
      "stateMutability": "view",
      "type": "function"
    },
    {
      "inputs": [],
      "name": "getOtherOpenAuctions",
      "outputs": [
        {
          "internalType": "uint256[]",
          "name": "",
          "type": "uint256[]"
        }
      ],
      "stateMutability": "view",
      "type": "function"
    },
    {
      "inputs": [],
      "name": "getMyOpenAuctions",
      "outputs": [
        {
          "internalType": "uint256[]",
          "name": "",
          "type": "uint256[]"
        }
      ],
      "stateMutability": "view",
      "type": "function"
    },
    {
      "inputs": [],
      "name": "getClosedAuctions",
      "outputs": [
        {
          "internalType": "uint256[]",
          "name": "",
          "type": "uint256[]"
        }
      ],
      "stateMutability": "view",
      "type": "function"
    }
  ],
  "bytecode": "0x608060405234801561001057600080fd5b50600061001b61006a565b600080546001600160a01b0319166001600160a01b0383169081178255604051929350917f8be0079c531659141344cd1fd0a4f28419497f9722a3daafe3b4186f6b6457e0908290a35061006e565b3390565b6119de8061007d6000396000f3fe608060405234801561001057600080fd5b50600436106100b45760003560e01c80638da5cb5b116100715780638da5cb5b14610149578063b4a93c8e14610151578063b8f763fb14610159578063ce36292e14610179578063f20e5e3514610199578063f2fde38b146101b9576100b4565b80630121683f146100b95780632ee95e38146100e257806332df3f02146100f7578063715018a6146101175780637fd855ee14610121578063822e06fd14610141575b600080fd5b6100cc6100c73660046110f6565b6101cc565b6040516100d991906114cb565b60405180910390f35b6100ea61036c565b6040516100d99190611208565b61010a61010536600461100b565b61051f565b6040516100d99190611178565b61011f61059c565b005b61013461012f3660046110de565b61061b565b6040516100d99190611164565b6100ea610841565b610134610971565b6100ea610980565b61016c610167366004611117565b610b2e565b6040516100d99190611240565b61018c6101873660046110de565b610d25565b6040516100d991906111c6565b6101ac6101a73660046110de565b610e1d565b6040516100d99190611487565b61011f6101c736600461100b565b610e93565b6000826101f45760405162461bcd60e51b81526004016101eb906113a3565b60405180910390fd5b6002546101ff610f4d565b506040805160a08101825282815233602082018181528284018781526060840189815260006080860181815260028054600181018255925286517f405787fa12a823e0f2b7631cc41b3ba8828b3321ca811111fa75cd3aa3bb5ace60059093029283015593517f405787fa12a823e0f2b7631cc41b3ba8828b3321ca811111fa75cd3aa3bb5acf820180546001600160a01b03199081166001600160a01b039384161790915593517f405787fa12a823e0f2b7631cc41b3ba8828b3321ca811111fa75cd3aa3bb5ad083015591517f405787fa12a823e0f2b7631cc41b3ba8828b3321ca811111fa75cd3aa3bb5ad182015592517f405787fa12a823e0f2b7631cc41b3ba8828b3321ca811111fa75cd3aa3bb5ad290930180549092169216919091179055915190919083907fe91b8ef1f7a1b902733c87cd4974a72d5adb750e4cf01345a737855e0871c21e9061035c908990899042906114d4565b60405180910390a3509392505050565b60606000805b60025481101561040357336001600160a01b03166002828154811061039357fe5b60009182526020909120600160059092020101546001600160a01b03161480156103ef575060006001600160a01b0316600282815481106103d057fe5b60009182526020909120600460059092020101546001600160a01b0316145b156103fb576001909101905b600101610372565b5060608167ffffffffffffffff8111801561041d57600080fd5b50604051908082528060200260200182016040528015610447578160200160208202803683370190505b5090506000915060005b60025481101561051857336001600160a01b03166002828154811061047257fe5b60009182526020909120600160059092020101546001600160a01b03161480156104ce575060006001600160a01b0316600282815481106104af57fe5b60009182526020909120600460059092020101546001600160a01b0316145b1561051057600281815481106104e057fe5b9060005260206000209060050201600001548284815181106104fe57fe5b60209081029190910101526001909201915b600101610451565b5091505090565b6060816001600160a01b0316632f45516c6040518163ffffffff1660e01b815260040160006040518083038186803b15801561055a57600080fd5b505afa15801561056e573d6000803e3d6000fd5b505050506040513d6000823e601f3d908101601f19168201604052610596919081019061102e565b92915050565b6105a4610f49565b6000546001600160a01b039081169116146105d15760405162461bcd60e51b81526004016101eb9061131a565b600080546040516001600160a01b03909116907f8be0079c531659141344cd1fd0a4f28419497f9722a3daafe3b4186f6b6457e0908390a3600080546001600160a01b0319169055565b60408051600280825260608281019093526000929190816020015b61063e610f8e565b815260200190600190039081610636579050509050604051806060016040528073a39e4f82a78a0462917e58c3d0ed710be3953fd26001600160a01b031681526020016064815260200160058152508160008151811061069a57fe5b6020026020010181905250604051806060016040528073a56b5b7d4018a1dfcdab09535007b44246f954b76001600160a01b03168152602001603b81526020016006815250816000815181106106ec57fe5b6020026020010181905250600060405161070590610fb8565b604051809103906000f080158015610721573d6000803e3d6000fd5b50604051631e4a2a0360e01b81529091506001600160a01b03821690631e4a2a0390610751908590600401611178565b600060405180830381600087803b15801561076b57600080fd5b505af115801561077f573d6000803e3d6000fd5b50506001805480820182556000919091527fb10e2d527612073b26eecdfd717e6a320cf44b4afac2b0732d9fcbe2b7fa0cf60180546001600160a01b0319166001600160a01b038516179055505060028054829190869081106107de57fe5b6000918252602082206005919091020160040180546001600160a01b0319166001600160a01b0393841617905560405191831691339187917f4a6acc3b5be3d897be1b8cd5971e3abcc7b32a5f1be6b5696d32af43143494cf9190a49392505050565b60606000805b60025481101561089a5760006001600160a01b03166002828154811061086957fe5b60009182526020909120600460059092020101546001600160a01b031614610892576001909101905b600101610847565b5060608167ffffffffffffffff811180156108b457600080fd5b506040519080825280602002602001820160405280156108de578160200160208202803683370190505b5090506000915060005b6002548110156105185760006001600160a01b03166002828154811061090a57fe5b60009182526020909120600460059092020101546001600160a01b031614610969576002818154811061093957fe5b90600052602060002090600502016000015482848151811061095757fe5b60209081029190910101526001909201915b6001016108e8565b6000546001600160a01b031690565b60606000805b600254811015610a1857336001600160a01b0316600282815481106109a757fe5b60009182526020909120600160059092020101546001600160a01b031614801590610a04575060006001600160a01b0316600282815481106109e557fe5b60009182526020909120600460059092020101546001600160a01b0316145b15610a10576001909101905b600101610986565b5060608167ffffffffffffffff81118015610a3257600080fd5b50604051908082528060200260200182016040528015610a5c578160200160208202803683370190505b5090506000915060005b60025481101561051857336001600160a01b031660028281548110610a8757fe5b60009182526020909120600160059092020101546001600160a01b031614801590610ae4575060006001600160a01b031660028281548110610ac557fe5b60009182526020909120600460059092020101546001600160a01b0316145b15610b265760028181548110610af657fe5b906000526020600020906005020160000154828481518110610b1457fe5b60209081029190910101526001909201915b600101610a66565b6000336001600160a01b031660028581548110610b4757fe5b60009182526020909120600160059092020101546001600160a01b03161415610b825760405162461bcd60e51b81526004016101eb906112d6565b6002548410610ba35760405162461bcd60e51b81526004016101eb906113f1565b8160028581548110610bb157fe5b9060005260206000209060050201600201541115610be15760405162461bcd60e51b81526004016101eb9061134f565b8260028581548110610bef57fe5b9060005260206000209060050201600301541015610c1f5760405162461bcd60e51b81526004016101eb90611438565b60006001600160a01b031660028581548110610c3757fe5b60009182526020909120600460059092020101546001600160a01b031614610c715760405162461bcd60e51b81526004016101eb9061124b565b60008481526003602081815260408084208151606081018352338082528185018981528285018b8152845460018082018755958a529690982092519590960290910180546001600160a01b0319166001600160a01b039095169490941784559351908301559251600290910155905185907fbe3edb6249603b78d8087d29461631b968f7434b00a013f9de5323f5507b792490610d13908690889042906114d4565b60405180910390a35060019392505050565b600081815260036020526040902054606090819067ffffffffffffffff81118015610d4f57600080fd5b50604051908082528060200260200182016040528015610d8957816020015b610d76610f8e565b815260200190600190039081610d6e5790505b50905060005b8151811015610e16576000848152600360205260409020805482908110610db257fe5b600091825260209182902060408051606081018252600390930290910180546001600160a01b03168352600181015493830193909352600290920154918101919091528251839083908110610e0357fe5b6020908102919091010152600101610d8f565b5092915050565b610e25610f4d565b60028281548110610e3257fe5b60009182526020918290206040805160a08101825260059093029091018054835260018101546001600160a01b0390811694840194909452600281015491830191909152600381015460608301526004015490911660808201529050919050565b610e9b610f49565b6000546001600160a01b03908116911614610ec85760405162461bcd60e51b81526004016101eb9061131a565b6001600160a01b038116610eee5760405162461bcd60e51b81526004016101eb90611290565b600080546040516001600160a01b03808516939216917f8be0079c531659141344cd1fd0a4f28419497f9722a3daafe3b4186f6b6457e091a3600080546001600160a01b0319166001600160a01b0392909216919091179055565b3390565b6040518060a001604052806000815260200160006001600160a01b03168152602001600081526020016000815260200160006001600160a01b031681525090565b604051806060016040528060006001600160a01b0316815260200160008152602001600081525090565b61047f8061152a83390190565b600060608284031215610fd6578081fd5b610fe060606114ea565b90508151610fed81611511565b80825250602082015160208201526040820151604082015292915050565b60006020828403121561101c578081fd5b813561102781611511565b9392505050565b60006020808385031215611040578182fd5b825167ffffffffffffffff80821115611057578384fd5b818501915085601f83011261106a578384fd5b815181811115611078578485fd5b61108584858302016114ea565b81815284810192508385016060808402860187018a10156110a4578788fd5b8795505b838610156110d0576110ba8a83610fc5565b85526001959095019493860193908101906110a8565b509098975050505050505050565b6000602082840312156110ef578081fd5b5035919050565b60008060408385031215611108578081fd5b50508035926020909101359150565b60008060006060848603121561112b578081fd5b505081359360208301359350604090920135919050565b80516001600160a01b0316825260208082015190830152604090810151910152565b6001600160a01b0391909116815260200190565b6020808252825182820181905260009190848201906040850190845b818110156111ba576111a7838551611142565b9284019260609290920191600101611194565b50909695505050505050565b6020808252825182820181905260009190848201906040850190845b818110156111ba576111f5838551611142565b92840192606092909201916001016111e2565b6020808252825182820181905260009190848201906040850190845b818110156111ba57835183529284019291840191600101611224565b901515815260200190565b60208082526025908201527f446973636f756e74696e67466163746f72793a2061756374696f6e20697320636040820152641b1bdcd95960da1b606082015260800190565b60208082526026908201527f4f776e61626c653a206e6577206f776e657220697320746865207a65726f206160408201526564647265737360d01b606082015260800190565b60208082526024908201527f446973636f756e74696e67466163746f72793a2077726f6e67206d73672e7365604082015263373232b960e11b606082015260800190565b6020808252818101527f4f776e61626c653a2063616c6c6572206973206e6f7420746865206f776e6572604082015260600190565b60208082526034908201527f446973636f756e74696e67466163746f72793a2077726f6e67205f646973636f6040820152733ab73a2832b931b2b73a103830b930b6b2ba32b960611b606082015260800190565b6020808252602e908201527f446973636f756e74696e67466163746f72793a2077726f6e67205f686173416d60408201526d37bab73a103830b930b6b2ba32b960911b606082015260800190565b60208082526027908201527f446973636f756e74696e67466163746f72793a2077726f6e67205f69642070616040820152663930b6b2ba32b960c91b606082015260800190565b6020808252602f908201527f446973636f756e74696e67466163746f72793a2077726f6e67205f6e6565644160408201526e36b7bab73a103830b930b6b2ba32b960891b606082015260800190565b815181526020808301516001600160a01b03908116918301919091526040808401519083015260608084015190830152608092830151169181019190915260a00190565b90815260200190565b9283526020830191909152604082015260600190565b60405181810167ffffffffffffffff8111828210171561150957600080fd5b604052919050565b6001600160a01b038116811461152657600080fd5b5056fe6080604052600060015534801561001557600080fd5b5061045a806100256000396000f3fe608060405234801561001057600080fd5b506004361061004c5760003560e01c80630477aade146100515780631e4a2a031461007c5780632f45516c1461009157806351dad731146100a6575b600080fd5b61006461005f366004610359565b6100bb565b60405161007393929190610371565b60405180910390f35b61008f61008a3660046102a9565b6100e6565b005b61009961015f565b6040516100739190610392565b6100ae610227565b60405161007391906103f4565b6000602081905290815260409020805460018201546002909201546001600160a01b03909116919083565b60005b8151811015610153578181815181106100fe57fe5b602090810291909101810151600180546000908152808452604090819020835181546001600160a01b0319166001600160a01b03909116178155938301518483015590910151600290920191909155016100e9565b50506001805481019055565b60608060015467ffffffffffffffff8111801561017b57600080fd5b506040519080825280602002602001820160405280156101b557816020015b6101a261022d565b81526020019060019003908161019a5790505b50905060005b81518110156102215760008181526020818152604091829020825160608101845281546001600160a01b031681526001820154928101929092526002015491810191909152825183908390811061020e57fe5b60209081029190910101526001016101bb565b50905090565b60015481565b604051806060016040528060006001600160a01b0316815260200160008152602001600081525090565b600060608284031215610268578081fd5b61027260606103fd565b905081356001600160a01b038116811461028b57600080fd5b80825250602082013560208201526040820135604082015292915050565b600060208083850312156102bb578182fd5b823567ffffffffffffffff808211156102d2578384fd5b818501915085601f8301126102e5578384fd5b8135818111156102f3578485fd5b61030084858302016103fd565b81815284810192508385016060808402860187018a101561031f578788fd5b8795505b8386101561034b576103358a83610257565b8552600195909501949386019390810190610323565b509098975050505050505050565b60006020828403121561036a578081fd5b5035919050565b6001600160a01b039390931683526020830191909152604082015260600190565b602080825282518282018190526000919060409081850190868401855b828110156103e757815180516001600160a01b03168552868101518786015285015185850152606090930192908501906001016103af565b5091979650505050505050565b90815260200190565b60405181810167ffffffffffffffff8111828210171561041c57600080fd5b60405291905056fea26469706673582212208883f456540b3f89a97689f710338c361bac26ad103ef65da078918d110d292664736f6c634300060c0033a26469706673582212206523b46ac56a3b094569c511a841572191a01c3b2f3a077fac48a57e64c36f0264736f6c634300060c0033",
  "immutableReferences": {},
  "source": "// SPDX-License-Identifier: MIT\n\n/**\n *                        oooo                             oooo                            oooo        \n *                        `888                             `888                            `888        \n *   .ooooo.  oooo  oooo   888   .ooooo.  oooo d8b          888 .oo.    .oooo.    .ooooo.   888  oooo  \n *  d88' `88b `888  `888   888  d88' `88b `888\"\"8P          888P\"Y88b  `P  )88b  d88' `\"Y8  888 .8P'   \n *  888ooo888  888   888   888  888ooo888  888     8888888  888   888   .oP\"888  888        888888.    \n *  888        888   888   888  888        888              888   888  d8(  888  888   .o8  888 `88b.  \n *  `Y8bod8P'  `V88V\"V8P' o888o `Y8bod8P' d888b            o888o o888o `Y888\"\"8o `Y8bod8P' o888o o888o                                                                                                \n *\n **/\n\npragma solidity ^0.6.12;\npragma experimental ABIEncoderV2;\n\nimport \"@openzeppelin/contracts/access/Ownable.sol\";\nimport \"@openzeppelin/contracts/math/SafeMath.sol\";\nimport \"./DiscountingContract.sol\";\nimport \"./IDiscountingFactory.sol\";\n\n\ncontract DiscountingFactory is IDiscountingFactory, Ownable {\n\n    using SafeMath for uint256;\n\n    //\n    // Storage\n    //\n\n    DiscountingContract[] private contracts;\n    Auction[] private auctions;\n    mapping(uint256 => Supplier[]) private auctionsSuppliers;\n\n    //\n    // Events\n    //\n\n    event CreatedAuction(uint256 indexed _id, address indexed _buyer, uint256 _hasAmount, uint256 _minPercent, uint256 _timestamp);\n    event RespondAuction(uint256 indexed _id, address indexed _responder, uint256 _discountPercent , uint256 _needAmount, uint256 _timestamp);\n    event ExecutedAuction(uint256 indexed _id, address indexed _buyer, address indexed _newContractAddress);\n\n    //\n    // External methods\n    //\n\n    function createAuction(uint256 _hasAmount, uint256 _minPercent) external override returns(uint256) {\n        require(_hasAmount != 0, \"DiscountingFactory: wrong _hasAmount parameter\");\n\n        uint256 newId = auctions.length;\n        Auction memory newAuction = Auction({\n            id: newId,\n            buyer: msg.sender,\n            minPercent: _minPercent,\n            hasAmount: _hasAmount,\n            signedContract: address(0)\n        });\n\n        auctions.push(newAuction);\n\n        emit CreatedAuction(newId, msg.sender, _hasAmount, _minPercent, block.timestamp);\n\n        return newId;\n    }\n\n    function respondAuction(uint256 _id, uint256 _needAmount, uint256 _discountPercent) external override returns(bool) {\n        require(auctions[_id].buyer != msg.sender, \"DiscountingFactory: wrong msg.sender\");\n        require(auctions.length > _id, \"DiscountingFactory: wrong _id parameter\");\n        require(auctions[_id].minPercent <= _discountPercent, \"DiscountingFactory: wrong _discountPercent parameter\");\n        require(auctions[_id].hasAmount >= _needAmount, \"DiscountingFactory: wrong _needAmount parameter\");\n        require(auctions[_id].signedContract == address(0), \"DiscountingFactory: auction is closed\");\n\n        auctionsSuppliers[_id].push(Supplier({\n            supplierAddress: msg.sender,\n            discountPercent: _discountPercent,\n            needAmount: _needAmount\n        }));\n\n        emit RespondAuction(_id, msg.sender, _discountPercent, _needAmount, block.timestamp);\n\n        return true;\n    }\n\n    function executeAuction(uint256 _id) external override returns(address) {\n        ContractRule[] memory newContractRule = new ContractRule[](2);\n        newContractRule[0] = ContractRule(address(0xA39E4F82a78A0462917e58c3d0ED710be3953fd2), 100, 5);\n        newContractRule[0] = ContractRule(address(0xA56b5B7d4018A1dfcdaB09535007B44246f954B7), 59, 6);\n\n        DiscountingContract resultContract = new DiscountingContract();\n        resultContract.initContract(newContractRule);\n        contracts.push(resultContract);\n\n        auctions[_id].signedContract =  address(resultContract);\n\n        emit ExecutedAuction(_id, msg.sender, address(resultContract));\n\n        return address(resultContract);\n    }\n\n    function getAuctionDetails(uint256 _id) external view override returns(Auction memory) {\n        return auctions[_id];\n    }\n\n    function getContractDetails(address _contractAddress) external view override returns(ContractRule[] memory) {\n        return DiscountingContract(_contractAddress).getContractRules();\n    }\n\n    //\n    // no gas control methods\n    //\n\n    function getAuctionSuppliers(uint256 _id) external view override returns(Supplier[] memory) {\n        Supplier[] memory result = new Supplier[](auctionsSuppliers[_id].length);\n        for (uint256 i = 0; i < result.length; i++) {\n            result[i] = auctionsSuppliers[_id][i];\n        }\n        return result;\n    }\n\n    function getOtherOpenAuctions() external view override returns(uint256[] memory) {\n        uint256 counter = 0;\n        for (uint256 i = 0; i < auctions.length; i++) {\n            if (auctions[i].buyer != msg.sender && auctions[i].signedContract == address(0)) {\n                counter++;\n            }\n        }\n        \n        uint256[] memory result = new uint256[](counter);\n        counter = 0;\n        for (uint256 i = 0; i < auctions.length; i++) {\n            if (auctions[i].buyer != msg.sender && auctions[i].signedContract == address(0)) {\n                result[counter] = auctions[i].id;\n                counter++;\n            }\n        }\n        return result;\n    }\n\n    function getMyOpenAuctions() external view override returns(uint256[] memory) {\n        uint256 counter = 0;\n        for (uint256 i = 0; i < auctions.length; i++) {\n            if (auctions[i].buyer == msg.sender && auctions[i].signedContract == address(0)) {\n                counter++;\n            }\n        }\n        \n        uint256[] memory result = new uint256[](counter);\n        counter = 0;\n        for (uint256 i = 0; i < auctions.length; i++) {\n            if (auctions[i].buyer == msg.sender && auctions[i].signedContract == address(0)) {\n                result[counter] = auctions[i].id;\n                counter++;\n            }\n        }\n        return result;\n    }\n\n    function getClosedAuctions() external view override returns(uint256[] memory) {\n        uint256 counter = 0;\n        for (uint256 i = 0; i < auctions.length; i++) {\n            if (auctions[i].signedContract != address(0)) {\n                counter++;\n            }\n        }\n        \n        uint256[] memory result = new uint256[](counter);\n        counter = 0;\n        for (uint256 i = 0; i < auctions.length; i++) {\n            if (auctions[i].signedContract != address(0)) {\n                result[counter] = auctions[i].id;\n                counter++;\n            }\n        }\n        return result;\n    }\n\n}\n",
  "sourcePath": "/home/oem/Dropbox/WORK/freelance/dynamic-discounting-contracts/contracts/DiscountingFactory.sol",
  "compiler": {
    "name": "solc",
    "version": "0.6.12+commit.27d51765.Emscripten.clang"
  },
  "schemaVersion": "3.2.5",
  "updatedAt": "2020-12-13T04:34:06.635Z",
  "devdoc": {
    "kind": "dev",
    "methods": {
      "owner()": {
        "details": "Returns the address of the current owner."
      },
      "renounceOwnership()": {
        "details": "Leaves the contract without owner. It will not be possible to call `onlyOwner` functions anymore. Can only be called by the current owner. NOTE: Renouncing ownership will leave the contract without an owner, thereby removing any functionality that is only available to the owner."
      },
      "transferOwnership(address)": {
        "details": "Transfers ownership of the contract to a new account (`newOwner`). Can only be called by the current owner."
      }
    },
    "version": 1
  },
  "userdoc": {
    "kind": "user",
    "methods": {},
    "version": 1
  }
}