{
  "contractName": "DiscountingFactory",
  "abi": [
    {
      "anonymous": false,
      "inputs": [
        {
          "indexed": true,
          "internalType": "uint256",
          "name": "_id",
          "type": "uint256"
        },
        {
          "indexed": true,
          "internalType": "address",
          "name": "_buyer",
          "type": "address"
        },
        {
          "indexed": false,
          "internalType": "uint256",
          "name": "_hasAmount",
          "type": "uint256"
        },
        {
          "indexed": false,
          "internalType": "uint256",
          "name": "_minPercent",
          "type": "uint256"
        },
        {
          "indexed": false,
          "internalType": "uint256",
          "name": "_timestamp",
          "type": "uint256"
        }
      ],
      "name": "CreatedAuction",
      "type": "event"
    },
    {
      "anonymous": false,
      "inputs": [
        {
          "indexed": true,
          "internalType": "uint256",
          "name": "_id",
          "type": "uint256"
        },
        {
          "indexed": true,
          "internalType": "address",
          "name": "_buyer",
          "type": "address"
        },
        {
          "indexed": true,
          "internalType": "address",
          "name": "_newContractAddress",
          "type": "address"
        }
      ],
      "name": "ExecutedAuction",
      "type": "event"
    },
    {
      "anonymous": false,
      "inputs": [
        {
          "indexed": true,
          "internalType": "address",
          "name": "previousOwner",
          "type": "address"
        },
        {
          "indexed": true,
          "internalType": "address",
          "name": "newOwner",
          "type": "address"
        }
      ],
      "name": "OwnershipTransferred",
      "type": "event"
    },
    {
      "anonymous": false,
      "inputs": [
        {
          "indexed": true,
          "internalType": "uint256",
          "name": "_id",
          "type": "uint256"
        },
        {
          "indexed": true,
          "internalType": "address",
          "name": "_responder",
          "type": "address"
        },
        {
          "indexed": false,
          "internalType": "uint256",
          "name": "_discountPercent",
          "type": "uint256"
        },
        {
          "indexed": false,
          "internalType": "uint256",
          "name": "_needAmount",
          "type": "uint256"
        },
        {
          "indexed": false,
          "internalType": "uint256",
          "name": "_timestamp",
          "type": "uint256"
        }
      ],
      "name": "RespondAuction",
      "type": "event"
    },
    {
      "inputs": [],
      "name": "owner",
      "outputs": [
        {
          "internalType": "address",
          "name": "",
          "type": "address"
        }
      ],
      "stateMutability": "view",
      "type": "function"
    },
    {
      "inputs": [],
      "name": "renounceOwnership",
      "outputs": [],
      "stateMutability": "nonpayable",
      "type": "function"
    },
    {
      "inputs": [
        {
          "internalType": "address",
          "name": "newOwner",
          "type": "address"
        }
      ],
      "name": "transferOwnership",
      "outputs": [],
      "stateMutability": "nonpayable",
      "type": "function"
    },
    {
      "inputs": [
        {
          "internalType": "uint256",
          "name": "_hasAmount",
          "type": "uint256"
        },
        {
          "internalType": "uint256",
          "name": "_minPercent",
          "type": "uint256"
        }
      ],
      "name": "createAuction",
      "outputs": [
        {
          "internalType": "uint256",
          "name": "",
          "type": "uint256"
        }
      ],
      "stateMutability": "nonpayable",
      "type": "function"
    },
    {
      "inputs": [
        {
          "internalType": "uint256",
          "name": "_id",
          "type": "uint256"
        },
        {
          "internalType": "uint256",
          "name": "_needAmount",
          "type": "uint256"
        },
        {
          "internalType": "uint256",
          "name": "_discountPercent",
          "type": "uint256"
        }
      ],
      "name": "respondAuction",
      "outputs": [
        {
          "internalType": "bool",
          "name": "",
          "type": "bool"
        }
      ],
      "stateMutability": "nonpayable",
      "type": "function"
    },
    {
      "inputs": [
        {
          "internalType": "uint256",
          "name": "_id",
          "type": "uint256"
        }
      ],
      "name": "executeAuction",
      "outputs": [
        {
          "internalType": "address",
          "name": "",
          "type": "address"
        }
      ],
      "stateMutability": "nonpayable",
      "type": "function"
    },
    {
      "inputs": [
        {
          "internalType": "uint256",
          "name": "_id",
          "type": "uint256"
        }
      ],
      "name": "getAuctionDetails",
      "outputs": [
        {
          "components": [
            {
              "internalType": "uint256",
              "name": "id",
              "type": "uint256"
            },
            {
              "internalType": "address",
              "name": "buyer",
              "type": "address"
            },
            {
              "internalType": "uint256",
              "name": "minPercent",
              "type": "uint256"
            },
            {
              "internalType": "uint256",
              "name": "hasAmount",
              "type": "uint256"
            },
            {
              "internalType": "address",
              "name": "signedContract",
              "type": "address"
            }
          ],
          "internalType": "struct DiscountingTypes.Auction",
          "name": "",
          "type": "tuple"
        }
      ],
      "stateMutability": "view",
      "type": "function"
    },
    {
      "inputs": [
        {
          "internalType": "address",
          "name": "_contractAddress",
          "type": "address"
        }
      ],
      "name": "getContractDetails",
      "outputs": [
        {
          "components": [
            {
              "internalType": "address",
              "name": "supplierAddress",
              "type": "address"
            },
            {
              "internalType": "uint256",
              "name": "needAmount",
              "type": "uint256"
            },
            {
              "internalType": "uint256",
              "name": "discountPercent",
              "type": "uint256"
            }
          ],
          "internalType": "struct DiscountingTypes.Supplier[]",
          "name": "",
          "type": "tuple[]"
        }
      ],
      "stateMutability": "view",
      "type": "function"
    },
    {
      "inputs": [],
      "name": "getAuctionsCount",
      "outputs": [
        {
          "internalType": "uint256",
          "name": "",
          "type": "uint256"
        }
      ],
      "stateMutability": "view",
      "type": "function"
    },
    {
      "inputs": [
        {
          "internalType": "uint256",
          "name": "_id",
          "type": "uint256"
        }
      ],
      "name": "getAuctionSuppliers",
      "outputs": [
        {
          "components": [
            {
              "internalType": "address",
              "name": "supplierAddress",
              "type": "address"
            },
            {
              "internalType": "uint256",
              "name": "needAmount",
              "type": "uint256"
            },
            {
              "internalType": "uint256",
              "name": "discountPercent",
              "type": "uint256"
            }
          ],
          "internalType": "struct DiscountingTypes.Supplier[]",
          "name": "",
          "type": "tuple[]"
        }
      ],
      "stateMutability": "view",
      "type": "function"
    },
    {
      "inputs": [],
      "name": "getOtherOpenAuctions",
      "outputs": [
        {
          "internalType": "uint256[]",
          "name": "",
          "type": "uint256[]"
        }
      ],
      "stateMutability": "view",
      "type": "function"
    },
    {
      "inputs": [],
      "name": "getMyOpenAuctions",
      "outputs": [
        {
          "internalType": "uint256[]",
          "name": "",
          "type": "uint256[]"
        }
      ],
      "stateMutability": "view",
      "type": "function"
    },
    {
      "inputs": [],
      "name": "getClosedAuctions",
      "outputs": [
        {
          "internalType": "uint256[]",
          "name": "",
          "type": "uint256[]"
        }
      ],
      "stateMutability": "view",
      "type": "function"
    },
    {
      "inputs": [
        {
          "components": [
            {
              "internalType": "address",
              "name": "supplierAddress",
              "type": "address"
            },
            {
              "internalType": "uint256",
              "name": "needAmount",
              "type": "uint256"
            },
            {
              "internalType": "uint256",
              "name": "discountPercent",
              "type": "uint256"
            }
          ],
          "internalType": "struct DiscountingTypes.Supplier[]",
          "name": "data",
          "type": "tuple[]"
        }
      ],
      "name": "sort",
      "outputs": [
        {
          "components": [
            {
              "internalType": "address",
              "name": "supplierAddress",
              "type": "address"
            },
            {
              "internalType": "uint256",
              "name": "needAmount",
              "type": "uint256"
            },
            {
              "internalType": "uint256",
              "name": "discountPercent",
              "type": "uint256"
            }
          ],
          "internalType": "struct DiscountingTypes.Supplier[]",
          "name": "",
          "type": "tuple[]"
        }
      ],
      "stateMutability": "view",
      "type": "function"
    }
  ],
  "bytecode": "0x608060405234801561001057600080fd5b50600061001b61006a565b600080546001600160a01b0319166001600160a01b0383169081178255604051929350917f8be0079c531659141344cd1fd0a4f28419497f9722a3daafe3b4186f6b6457e0908290a35061006e565b3390565b611e1f8061007d6000396000f3fe608060405234801561001057600080fd5b50600436106100ea5760003560e01c80638da5cb5b1161008c578063ce36292e11610066578063ce36292e146101c2578063e45c1879146101d5578063f20e5e35146101dd578063f2fde38b146101fd576100ea565b80638da5cb5b14610192578063b4a93c8e1461019a578063b8f763fb146101a2576100ea565b806332df3f02116100c857806332df3f021461014d578063715018a6146101605780637fd855ee1461016a578063822e06fd1461018a576100ea565b80630121683f146100ef5780631d9cc86f146101185780632ee95e3814610138575b600080fd5b6101026100fd3660046114b2565b610210565b60405161010f9190611893565b60405180910390f35b61012b610126366004611310565b6103b2565b60405161010f9190611512565b6101406103c8565b60405161010f9190611574565b61012b61015b3660046112ed565b61057b565b6101686105f2565b005b61017d61017836600461149a565b610671565b60405161010f91906114fe565b610140610a26565b61017d610b56565b610140610b65565b6101b56101b03660046114d3565b610d13565b60405161010f91906115b8565b61012b6101d036600461149a565b610f0b565b610102611003565b6101f06101eb36600461149a565b611009565b60405161010f919061184f565b61016861020b3660046112ed565b61107f565b6000826102385760405162461bcd60e51b815260040161022f9061171b565b60405180910390fd5b60025461024361126a565b506040805160a08101825282815233602082018181528284018781526060840189815260006080860181815260028054600181018255925286517f405787fa12a823e0f2b7631cc41b3ba8828b3321ca811111fa75cd3aa3bb5ace60059093029283015593517f405787fa12a823e0f2b7631cc41b3ba8828b3321ca811111fa75cd3aa3bb5acf820180546001600160a01b03199081166001600160a01b039384161790915593517f405787fa12a823e0f2b7631cc41b3ba8828b3321ca811111fa75cd3aa3bb5ad083015591517f405787fa12a823e0f2b7631cc41b3ba8828b3321ca811111fa75cd3aa3bb5ad182015592517f405787fa12a823e0f2b7631cc41b3ba8828b3321ca811111fa75cd3aa3bb5ad290930180549092169216919091179055915190919083907fe91b8ef1f7a1b902733c87cd4974a72d5adb750e4cf01345a737855e0871c21e906103a09089908990429061189c565b60405180910390a35090505b92915050565b60606103c48260006001855103611135565b5090565b60606000805b60025481101561045f57336001600160a01b0316600282815481106103ef57fe5b60009182526020909120600160059092020101546001600160a01b031614801561044b575060006001600160a01b03166002828154811061042c57fe5b60009182526020909120600460059092020101546001600160a01b0316145b15610457576001909101905b6001016103ce565b5060608167ffffffffffffffff8111801561047957600080fd5b506040519080825280602002602001820160405280156104a3578160200160208202803683370190505b5090506000915060005b60025481101561057457336001600160a01b0316600282815481106104ce57fe5b60009182526020909120600160059092020101546001600160a01b031614801561052a575060006001600160a01b03166002828154811061050b57fe5b60009182526020909120600460059092020101546001600160a01b0316145b1561056c576002818154811061053c57fe5b90600052602060002090600502016000015482848151811061055a57fe5b60209081029190910101526001909201915b6001016104ad565b5091505090565b6060816001600160a01b031663435168326040518163ffffffff1660e01b815260040160006040518083038186803b1580156105b657600080fd5b505afa1580156105ca573d6000803e3d6000fd5b505050506040513d6000823e601f3d908101601f191682016040526103ac91908101906113df565b6105fa611266565b6000546001600160a01b039081169116146106275760405162461bcd60e51b815260040161022f90611692565b600080546040516001600160a01b03909116907f8be0079c531659141344cd1fd0a4f28419497f9722a3daafe3b4186f6b6457e0908390a3600080546001600160a01b0319169055565b60025460009082106106955760405162461bcd60e51b815260040161022f90611769565b336001600160a01b0316600283815481106106ac57fe5b60009182526020909120600160059092020101546001600160a01b0316146106e65760405162461bcd60e51b815260040161022f9061164e565b60008281526003602052604090205460609067ffffffffffffffff8111801561070e57600080fd5b5060405190808252806020026020018201604052801561074857816020015b6107356112ab565b81526020019060019003908161072d5790505b50905060005b81518110156107d557600084815260036020526040902080548290811061077157fe5b600091825260209182902060408051606081018252600390930290910180546001600160a01b031683526001810154938301939093526002909201549181019190915282518390839081106107c257fe5b602090810291909101015260010161074e565b506107df816103b2565b905060008060005b8351811015610843578381815181106107fc57fe5b602002602001015160200151820191506002868154811061081957fe5b90600052602060002090600502016003015482111561083757610843565b600192830192016107e7565b5060608267ffffffffffffffff8111801561085d57600080fd5b5060405190808252806020026020018201604052801561089757816020015b6108846112ab565b81526020019060019003908161087c5790505b50905060005b838110156108d8578481815181106108b157fe5b60200260200101518282815181106108c557fe5b602090810291909101015260010161089d565b5060006040516108e7906112d5565b604051809103906000f080158015610903573d6000803e3d6000fd5b50604051631e4a2a0360e01b81529091506001600160a01b03821690631e4a2a0390610933908590600401611512565b600060405180830381600087803b15801561094d57600080fd5b505af1158015610961573d6000803e3d6000fd5b50506001805480820182556000919091527fb10e2d527612073b26eecdfd717e6a320cf44b4afac2b0732d9fcbe2b7fa0cf60180546001600160a01b0319166001600160a01b038516179055505060028054829190899081106109c057fe5b6000918252602082206005919091020160040180546001600160a01b0319166001600160a01b039384161790556040519183169133918a917f4a6acc3b5be3d897be1b8cd5971e3abcc7b32a5f1be6b5696d32af43143494cf9190a49695505050505050565b60606000805b600254811015610a7f5760006001600160a01b031660028281548110610a4e57fe5b60009182526020909120600460059092020101546001600160a01b031614610a77576001909101905b600101610a2c565b5060608167ffffffffffffffff81118015610a9957600080fd5b50604051908082528060200260200182016040528015610ac3578160200160208202803683370190505b5090506000915060005b6002548110156105745760006001600160a01b031660028281548110610aef57fe5b60009182526020909120600460059092020101546001600160a01b031614610b4e5760028181548110610b1e57fe5b906000526020600020906005020160000154828481518110610b3c57fe5b60209081029190910101526001909201915b600101610acd565b6000546001600160a01b031690565b60606000805b600254811015610bfd57336001600160a01b031660028281548110610b8c57fe5b60009182526020909120600160059092020101546001600160a01b031614801590610be9575060006001600160a01b031660028281548110610bca57fe5b60009182526020909120600460059092020101546001600160a01b0316145b15610bf5576001909101905b600101610b6b565b5060608167ffffffffffffffff81118015610c1757600080fd5b50604051908082528060200260200182016040528015610c41578160200160208202803683370190505b5090506000915060005b60025481101561057457336001600160a01b031660028281548110610c6c57fe5b60009182526020909120600160059092020101546001600160a01b031614801590610cc9575060006001600160a01b031660028281548110610caa57fe5b60009182526020909120600460059092020101546001600160a01b0316145b15610d0b5760028181548110610cdb57fe5b906000526020600020906005020160000154828481518110610cf957fe5b60209081029190910101526001909201915b600101610c4b565b6002546000908410610d375760405162461bcd60e51b815260040161022f906117b0565b336001600160a01b031660028581548110610d4e57fe5b60009182526020909120600160059092020101546001600160a01b03161415610d895760405162461bcd60e51b815260040161022f9061164e565b8160028581548110610d9757fe5b9060005260206000209060050201600201541115610dc75760405162461bcd60e51b815260040161022f906116c7565b8260028581548110610dd557fe5b9060005260206000209060050201600301541015610e055760405162461bcd60e51b815260040161022f90611800565b60006001600160a01b031660028581548110610e1d57fe5b60009182526020909120600460059092020101546001600160a01b031614610e575760405162461bcd60e51b815260040161022f906115c3565b60008481526003602081815260408084208151606081018352338082528185018a81528285018a8152845460018082018755958a529690982092519590960290910180546001600160a01b0319166001600160a01b039095169490941784559351908301559251600290910155905185907fbe3edb6249603b78d8087d29461631b968f7434b00a013f9de5323f5507b792490610ef99086908890429061189c565b60405180910390a35060019392505050565b600081815260036020526040902054606090819067ffffffffffffffff81118015610f3557600080fd5b50604051908082528060200260200182016040528015610f6f57816020015b610f5c6112ab565b815260200190600190039081610f545790505b50905060005b8151811015610ffc576000848152600360205260409020805482908110610f9857fe5b600091825260209182902060408051606081018252600390930290910180546001600160a01b03168352600181015493830193909352600290920154918101919091528251839083908110610fe957fe5b6020908102919091010152600101610f75565b5092915050565b60025490565b61101161126a565b6002828154811061101e57fe5b60009182526020918290206040805160a08101825260059093029091018054835260018101546001600160a01b0390811694840194909452600281015491830191909152600381015460608301526004015490911660808201529050919050565b611087611266565b6000546001600160a01b039081169116146110b45760405162461bcd60e51b815260040161022f90611692565b6001600160a01b0381166110da5760405162461bcd60e51b815260040161022f90611608565b600080546040516001600160a01b03808516939216917f8be0079c531659141344cd1fd0a4f28419497f9722a3daafe3b4186f6b6457e091a3600080546001600160a01b0319166001600160a01b0392909216919091179055565b818180821415611146575050611261565b60008560028686030586018151811061115b57fe5b60200260200101516040015190505b818313611237575b8086848151811061117f57fe5b602002602001015160400151111561119c57600190920191611172565b8582815181106111a857fe5b6020026020010151604001518111156111c7576000199091019061119c565b818313611232578582815181106111da57fe5b60200260200101518684815181106111ee57fe5b602002602001015187858151811061120257fe5b6020026020010188858151811061121557fe5b602090810291909101019190915252600190920191600019909101905b61116a565b8185121561124a5761124a868684611135565b8383121561125d5761125d868486611135565b5050505b505050565b3390565b6040518060a001604052806000815260200160006001600160a01b03168152602001600081526020016000815260200160006001600160a01b031681525090565b604051806060016040528060006001600160a01b0316815260200160008152602001600081525090565b6104d88061191283390190565b80516103ac816118f9565b6000602082840312156112fe578081fd5b8135611309816118f9565b9392505050565b60006020808385031215611322578182fd5b823567ffffffffffffffff811115611338578283fd5b8301601f81018513611348578283fd5b803561135b611356826118d9565b6118b2565b818152838101908385016060808502860187018a1015611379578788fd5b8795505b848610156113d15780828b031215611393578788fd5b61139c816118b2565b82356113a7816118f9565b8152828801358882015260408084013590820152845260019590950194928601929081019061137d565b509098975050505050505050565b600060208083850312156113f1578182fd5b825167ffffffffffffffff811115611407578283fd5b8301601f81018513611417578283fd5b8051611425611356826118d9565b818152838101908385016060808502860187018a1015611443578788fd5b8795505b848610156113d15780828b03121561145d578788fd5b611466816118b2565b6114708b846112e2565b81528288015188820152604080840151908201528452600195909501949286019290810190611447565b6000602082840312156114ab578081fd5b5035919050565b600080604083850312156114c4578081fd5b50508035926020909101359150565b6000806000606084860312156114e7578081fd5b505081359360208301359350604090920135919050565b6001600160a01b0391909116815260200190565b602080825282518282018190526000919060409081850190868401855b8281101561156757815180516001600160a01b031685528681015187860152850151858501526060909301929085019060010161152f565b5091979650505050505050565b6020808252825182820181905260009190848201906040850190845b818110156115ac57835183529284019291840191600101611590565b50909695505050505050565b901515815260200190565b60208082526025908201527f446973636f756e74696e67466163746f72793a2061756374696f6e20697320636040820152641b1bdcd95960da1b606082015260800190565b60208082526026908201527f4f776e61626c653a206e6577206f776e657220697320746865207a65726f206160408201526564647265737360d01b606082015260800190565b60208082526024908201527f446973636f756e74696e67466163746f72793a2077726f6e67206d73672e7365604082015263373232b960e11b606082015260800190565b6020808252818101527f4f776e61626c653a2063616c6c6572206973206e6f7420746865206f776e6572604082015260600190565b60208082526034908201527f446973636f756e74696e67466163746f72793a2077726f6e67205f646973636f6040820152733ab73a2832b931b2b73a103830b930b6b2ba32b960611b606082015260800190565b6020808252602e908201527f446973636f756e74696e67466163746f72793a2077726f6e67205f686173416d60408201526d37bab73a103830b930b6b2ba32b960911b606082015260800190565b60208082526027908201527f446973636f756e74696e67466163746f72793a2077726f6e67205f69642070616040820152663930b6b2ba32b960c91b606082015260800190565b60208082526030908201527f446973636f756e73747275637475726574696e67466163746f72793a2077726f60408201526f3733902fb4b2103830b930b6b2ba32b960811b606082015260800190565b6020808252602f908201527f446973636f756e74696e67466163746f72793a2077726f6e67205f6e6565644160408201526e36b7bab73a103830b930b6b2ba32b960891b606082015260800190565b815181526020808301516001600160a01b03908116918301919091526040808401519083015260608084015190830152608092830151169181019190915260a00190565b90815260200190565b9283526020830191909152604082015260600190565b60405181810167ffffffffffffffff811182821017156118d157600080fd5b604052919050565b600067ffffffffffffffff8211156118ef578081fd5b5060209081020190565b6001600160a01b038116811461190e57600080fd5b5056fe608060405260006001556002805460ff1916905534801561001f57600080fd5b506104a98061002f6000396000f3fe608060405234801561001057600080fd5b50600436106100575760003560e01c80631e4a2a031461005c57806324b2dff1146100715780632b3eb1371461009c57806343516832146100b157806343c885ba146100c6575b600080fd5b61006f61006a3660046102ed565b6100db565b005b61008461007f36600461039d565b61016f565b604051610093939291906103b5565b60405180910390f35b6100a461019a565b6040516100939190610443565b6100b96101a0565b60405161009391906103d6565b6100ce610268565b6040516100939190610438565b60025460ff16156100eb57600080fd5b60005b815181101561015e5781818151811061010357fe5b602090810291909101810151600180546000908152808452604090819020835181546001600160a01b0319166001600160a01b03909116178155938301518483015590910151600290920191909155805481018155016100ee565b50506002805460ff19166001179055565b6000602081905290815260409020805460018201546002909201546001600160a01b03909116919083565b60015481565b60608060015467ffffffffffffffff811180156101bc57600080fd5b506040519080825280602002602001820160405280156101f657816020015b6101e3610271565b8152602001906001900390816101db5790505b50905060005b81518110156102625760008181526020818152604091829020825160608101845281546001600160a01b031681526001820154928101929092526002015491810191909152825183908390811061024f57fe5b60209081029190910101526001016101fc565b50905090565b60025460ff1681565b604051806060016040528060006001600160a01b0316815260200160008152602001600081525090565b6000606082840312156102ac578081fd5b6102b6606061044c565b905081356001600160a01b03811681146102cf57600080fd5b80825250602082013560208201526040820135604082015292915050565b600060208083850312156102ff578182fd5b823567ffffffffffffffff80821115610316578384fd5b818501915085601f830112610329578384fd5b813581811115610337578485fd5b610344848583020161044c565b81815284810192508385016060808402860187018a1015610363578788fd5b8795505b8386101561038f576103798a8361029b565b8552600195909501949386019390810190610367565b509098975050505050505050565b6000602082840312156103ae578081fd5b5035919050565b6001600160a01b039390931683526020830191909152604082015260600190565b602080825282518282018190526000919060409081850190868401855b8281101561042b57815180516001600160a01b03168552868101518786015285015185850152606090930192908501906001016103f3565b5091979650505050505050565b901515815260200190565b90815260200190565b60405181810167ffffffffffffffff8111828210171561046b57600080fd5b60405291905056fea26469706673582212206054f05c8997c23ecb98e15a02b641b4dcffcded9abd8b026f6edd59e04058ac64736f6c634300060c0033a26469706673582212206098bcbe6d31410bfb46459b3e1e1aa1c14034b76bfbc96519d2bd1bc07c76d664736f6c634300060c0033",
  "immutableReferences": {},
  "source": "// SPDX-License-Identifier: MIT\n\n/**\n *                        oooo                             oooo                            oooo        \n *                        `888                             `888                            `888        \n *   .ooooo.  oooo  oooo   888   .ooooo.  oooo d8b          888 .oo.    .oooo.    .ooooo.   888  oooo  \n *  d88' `88b `888  `888   888  d88' `88b `888\"\"8P          888P\"Y88b  `P  )88b  d88' `\"Y8  888 .8P'   \n *  888ooo888  888   888   888  888ooo888  888     8888888  888   888   .oP\"888  888        888888.    \n *  888        888   888   888  888        888              888   888  d8(  888  888   .o8  888 `88b.  \n *  `Y8bod8P'  `V88V\"V8P' o888o `Y8bod8P' d888b            o888o o888o `Y888\"\"8o `Y8bod8P' o888o o888o                                                                                                \n *\n **/\n\npragma solidity ^0.6.12;\npragma experimental ABIEncoderV2;\n\nimport \"@openzeppelin/contracts/access/Ownable.sol\";\nimport \"@openzeppelin/contracts/math/SafeMath.sol\";\nimport \"./DiscountingContract.sol\";\nimport \"./IDiscountingFactory.sol\";\n\n\ncontract DiscountingFactory is IDiscountingFactory, Ownable {\n\n    using SafeMath for uint256;\n\n    //\n    // Storage\n    //\n\n    DiscountingContract[] private contracts;\n    Auction[] private auctions;\n    mapping(uint256 => Supplier[]) private auctionsSuppliers;\n\n    //\n    // Events\n    //\n\n    event CreatedAuction(uint256 indexed _id, address indexed _buyer, uint256 _hasAmount, uint256 _minPercent, uint256 _timestamp);\n    event RespondAuction(uint256 indexed _id, address indexed _responder, uint256 _discountPercent , uint256 _needAmount, uint256 _timestamp);\n    event ExecutedAuction(uint256 indexed _id, address indexed _buyer, address indexed _newContractAddress);\n\n    //\n    // External methods\n    //\n\n    function createAuction(uint256 _hasAmount, uint256 _minPercent) external override returns(uint256) {\n        require(_hasAmount != 0, \"DiscountingFactory: wrong _hasAmount parameter\");\n\n        uint256 newId = auctions.length;\n        Auction memory newAuction = Auction({\n            id: newId,\n            buyer: msg.sender,\n            minPercent: _minPercent,\n            hasAmount: _hasAmount,\n            signedContract: address(0)\n        });\n\n        auctions.push(newAuction);\n\n        emit CreatedAuction(newId, msg.sender, _hasAmount, _minPercent, block.timestamp);\n\n        return newId;\n    }\n\n    function respondAuction(uint256 _id, uint256 _needAmount, uint256 _discountPercent) external override returns(bool) {\n        require(auctions.length > _id, \"DiscounstructuretingFactory: wrong _id parameter\");\n        require(auctions[_id].buyer != msg.sender, \"DiscountingFactory: wrong msg.sender\");\n        require(auctions[_id].minPercent <= _discountPercent, \"DiscountingFactory: wrong _discountPercent parameter\");\n        require(auctions[_id].hasAmount >= _needAmount, \"DiscountingFactory: wrong _needAmount parameter\");\n        require(auctions[_id].signedContract == address(0), \"DiscountingFactory: auction is closed\");\n\n        auctionsSuppliers[_id].push(Supplier({\n            supplierAddress: msg.sender,\n            discountPercent: _discountPercent,\n            needAmount: _needAmount\n        }));\n\n        emit RespondAuction(_id, msg.sender, _discountPercent, _needAmount, block.timestamp);\n\n        return true;\n    }\n\n    function executeAuction(uint256 _id) external override returns(address) {\n        require(auctions.length > _id, \"DiscountingFactory: wrong _id parameter\");\n        require(auctions[_id].buyer == msg.sender, \"DiscountingFactory: wrong msg.sender\");\n\n        // load suppliers from storage\n        Supplier[] memory newSuppliers = new Supplier[](auctionsSuppliers[_id].length);\n        for (uint256 i = 0; i < newSuppliers.length; i++) {\n            newSuppliers[i] = auctionsSuppliers[_id][i];\n        }\n\n        // sort\n        newSuppliers = sort(newSuppliers);\n\n        // filling\n        uint256 counter = 0;\n        uint256 filled = 0;\n        for (uint256 i = 0; i < newSuppliers.length; i++) {\n            filled = filled + newSuppliers[i].needAmount;\n            if (filled > auctions[_id].hasAmount) {\n                break;\n            }\n            counter++;\n        }\n        Supplier[] memory resultSuppliers = new Supplier[](counter);\n        for (uint256 i = 0; i < counter; i++) {\n            resultSuppliers[i] = newSuppliers[i];\n        }\n\n        DiscountingContract resultContract = new DiscountingContract();\n        resultContract.initContract(resultSuppliers);\n        contracts.push(resultContract);\n\n        auctions[_id].signedContract =  address(resultContract);\n\n        emit ExecutedAuction(_id, msg.sender, address(resultContract));\n\n        return address(resultContract);\n    }\n\n    function getAuctionDetails(uint256 _id) external view override returns(Auction memory) {\n        return auctions[_id];\n    }\n\n    function getContractDetails(address _contractAddress) external view override returns(Supplier[] memory) {\n        return DiscountingContract(_contractAddress).getSuppliers();\n    }\n\n    function getAuctionsCount() external view returns(uint) {\n        return auctions.length;\n    }\n\n\n    //\n    // no gas control methods\n    //\n\n    function getAuctionSuppliers(uint256 _id) external view override returns(Supplier[] memory) {\n        Supplier[] memory result = new Supplier[](auctionsSuppliers[_id].length);\n        for (uint256 i = 0; i < result.length; i++) {\n            result[i] = auctionsSuppliers[_id][i];\n        }\n        return result;\n    }\n\n    function getOtherOpenAuctions() external view override returns(uint256[] memory) {\n        uint256 counter = 0;\n        for (uint256 i = 0; i < auctions.length; i++) {\n            if (auctions[i].buyer != msg.sender && auctions[i].signedContract == address(0)) {\n                counter++;\n            }\n        }\n        \n        uint256[] memory result = new uint256[](counter);\n        counter = 0;\n        for (uint256 i = 0; i < auctions.length; i++) {\n            if (auctions[i].buyer != msg.sender && auctions[i].signedContract == address(0)) {\n                result[counter] = auctions[i].id;\n                counter++;\n            }\n        }\n        return result;\n    }\n\n    function getMyOpenAuctions() external view override returns(uint256[] memory) {\n        uint256 counter = 0;\n        for (uint256 i = 0; i < auctions.length; i++) {\n            if (auctions[i].buyer == msg.sender && auctions[i].signedContract == address(0)) {\n                counter++;\n            }\n        }\n        \n        uint256[] memory result = new uint256[](counter);\n        counter = 0;\n        for (uint256 i = 0; i < auctions.length; i++) {\n            if (auctions[i].buyer == msg.sender && auctions[i].signedContract == address(0)) {\n                result[counter] = auctions[i].id;\n                counter++;\n            }\n        }\n        return result;\n    }\n\n    function getClosedAuctions() external view override returns(uint256[] memory) {\n        uint256 counter = 0;\n        for (uint256 i = 0; i < auctions.length; i++) {\n            if (auctions[i].signedContract != address(0)) {\n                counter++;\n            }\n        }\n        \n        uint256[] memory result = new uint256[](counter);\n        counter = 0;\n        for (uint256 i = 0; i < auctions.length; i++) {\n            if (auctions[i].signedContract != address(0)) {\n                result[counter] = auctions[i].id;\n                counter++;\n            }\n        }\n        return result;\n    }\n\n    function sort(Supplier[] memory data) public view returns(Supplier[] memory) {\n       quickSort(data, int(0), int(data.length - 1));\n       return data;\n    }\n\n    function quickSort(Supplier[] memory arr, int left, int right) internal view {\n        int i = left;\n        int j = right;\n        if(i==j) return;\n        uint pivot = arr[uint(left + (right - left) / 2)].discountPercent;\n        while (i <= j) {\n            while (arr[uint(i)].discountPercent > pivot) i++;\n            while (pivot > arr[uint(j)].discountPercent) j--;\n            if (i <= j) {\n                (arr[uint(i)], arr[uint(j)]) = (arr[uint(j)], arr[uint(i)]);\n                i++;\n                j--;\n            }\n        }\n        if (left < j)\n            quickSort(arr, left, j);\n        if (i < right)\n            quickSort(arr, i, right);\n    }\n\n    \n\n}\n",
  "sourcePath": "/home/oem/Dropbox/WORK/freelance/dynamic-discounting-contracts/contracts/discounting/DiscountingFactory.sol",
  "compiler": {
    "name": "solc",
    "version": "0.6.12+commit.27d51765.Emscripten.clang"
  },
  "schemaVersion": "3.2.5",
  "updatedAt": "2020-12-13T06:22:52.325Z",
  "devdoc": {
    "kind": "dev",
    "methods": {
      "owner()": {
        "details": "Returns the address of the current owner."
      },
      "renounceOwnership()": {
        "details": "Leaves the contract without owner. It will not be possible to call `onlyOwner` functions anymore. Can only be called by the current owner. NOTE: Renouncing ownership will leave the contract without an owner, thereby removing any functionality that is only available to the owner."
      },
      "transferOwnership(address)": {
        "details": "Transfers ownership of the contract to a new account (`newOwner`). Can only be called by the current owner."
      }
    },
    "version": 1
  },
  "userdoc": {
    "kind": "user",
    "methods": {},
    "version": 1
  }
}